{
  "_format": "hh-sol-artifact-1",
  "contractName": "ProductAtOrganization",
  "sourceName": "contracts/ProductAtOrganization.sol",
  "abi": [
    {
      "inputs": [
        {
          "internalType": "address",
          "name": "_productAddress",
          "type": "address"
        },
        {
          "internalType": "address",
          "name": "_organizationAddress",
          "type": "address"
        },
        {
          "internalType": "address",
          "name": "_manager",
          "type": "address"
        }
      ],
      "stateMutability": "nonpayable",
      "type": "constructor"
    },
    {
      "inputs": [
        {
          "internalType": "string",
          "name": "_timeEvent",
          "type": "string"
        },
        {
          "internalType": "string",
          "name": "_typeEvent",
          "type": "string"
        },
        {
          "internalType": "string",
          "name": "_jsonEvent",
          "type": "string"
        }
      ],
      "name": "addEvent",
      "outputs": [],
      "stateMutability": "nonpayable",
      "type": "function"
    },
    {
      "inputs": [],
      "name": "getEvents",
      "outputs": [
        {
          "components": [
            {
              "internalType": "string",
              "name": "jsonEvent",
              "type": "string"
            },
            {
              "internalType": "string",
              "name": "timeEvent",
              "type": "string"
            },
            {
              "internalType": "string",
              "name": "typeEvent",
              "type": "string"
            }
          ],
          "internalType": "struct ProductAtOrganization.EventInfo[]",
          "name": "",
          "type": "tuple[]"
        }
      ],
      "stateMutability": "view",
      "type": "function"
    },
    {
      "inputs": [],
      "name": "getInfo",
      "outputs": [
        {
          "components": [
            {
              "internalType": "address",
              "name": "organizationAddress",
              "type": "address"
            },
            {
              "internalType": "address",
              "name": "productAddress",
              "type": "address"
            }
          ],
          "internalType": "struct ProductAtOrganization.Info",
          "name": "",
          "type": "tuple"
        }
      ],
      "stateMutability": "view",
      "type": "function"
    },
    {
      "inputs": [],
      "name": "manager",
      "outputs": [
        {
          "internalType": "address",
          "name": "",
          "type": "address"
        }
      ],
      "stateMutability": "view",
      "type": "function"
    },
    {
      "inputs": [],
      "name": "permissions",
      "outputs": [
        {
          "internalType": "contract ProductPermissions",
          "name": "",
          "type": "address"
        }
      ],
      "stateMutability": "view",
      "type": "function"
    }
  ],
  "bytecode": "0x608060405234801561001057600080fd5b5060405161095d38038061095d83398101604081905261002f916100ab565b600380546001600160a01b039283166001600160a01b0319918216179091556040805180820190915292821680845293909116602090920182905260018054821690931790925560028054831682179055600480549092161790556100ee565b80516001600160a01b03811681146100a657600080fd5b919050565b6000806000606084860312156100c057600080fd5b6100c98461008f565b92506100d76020850161008f565b91506100e56040850161008f565b90509250925092565b610860806100fd6000396000f3fe608060405234801561001057600080fd5b50600436106100575760003560e01c8063404aa8f91461005c578063481c6a751461007a5780634f3900b0146100a55780635a9b0b89146100ba578063ab8c71c014610106575b600080fd5b610064610119565b60405161007191906104da565b60405180910390f35b60035461008d906001600160a01b031681565b6040516001600160a01b039091168152602001610071565b6100b86100b3366004610625565b610404565b005b6040805180820182526000808252602091820152815180830183526001546001600160a01b03908116808352600254821692840192835284519081529151169181019190915201610071565b60045461008d906001600160a01b031681565b6004805460015460405163cde6804160e01b815233938101939093526001600160a01b03908116602484015260609291169063cde6804190604401602060405180830381865afa158015610171573d6000803e3d6000fd5b505050506040513d601f19601f8201168201806040525081019061019591906106b9565b6101f15760405162461bcd60e51b8152602060048201526024808201527f4163636573732064656e6965643a2063616c6c6572206e6f7420617574686f726044820152631a5e995960e21b606482015260840160405180910390fd5b6000805480602002602001604051908101604052809291908181526020016000905b828210156103fb5783829060005260206000209060030201604051806060016040529081600082018054610246906106e2565b80601f0160208091040260200160405190810160405280929190818152602001828054610272906106e2565b80156102bf5780601f10610294576101008083540402835291602001916102bf565b820191906000526020600020905b8154815290600101906020018083116102a257829003601f168201915b505050505081526020016001820180546102d8906106e2565b80601f0160208091040260200160405190810160405280929190818152602001828054610304906106e2565b80156103515780601f1061032657610100808354040283529160200191610351565b820191906000526020600020905b81548152906001019060200180831161033457829003601f168201915b5050505050815260200160028201805461036a906106e2565b80601f0160208091040260200160405190810160405280929190818152602001828054610396906106e2565b80156103e35780601f106103b8576101008083540402835291602001916103e3565b820191906000526020600020905b8154815290600101906020018083116103c657829003601f168201915b50505050508152505081526020019060010190610213565b50505050905090565b604080516060810182528281526020810185905290810183905260008054600181018255908052815182916003027f290decd9548b62a8d60345a988386fc84ba6bc95484008f6362f93160ef3e56301908190610461908261076b565b5060208201516001820190610476908261076b565b506040820151600282019061048b908261076b565b50505050505050565b6000815180845260005b818110156104ba5760208185018101518683018201520161049e565b506000602082860101526020601f19601f83011685010191505092915050565b6000602082016020835280845180835260408501915060408160051b86010192506020860160005b8281101561057457603f1987860301845281518051606087526105286060880182610494565b9050602082015187820360208901526105418282610494565b91505060408201519150868103604088015261055d8183610494565b965050506020938401939190910190600101610502565b50929695505050505050565b634e487b7160e01b600052604160045260246000fd5b600082601f8301126105a757600080fd5b813567ffffffffffffffff8111156105c1576105c1610580565b604051601f8201601f19908116603f0116810167ffffffffffffffff811182821017156105f0576105f0610580565b60405281815283820160200185101561060857600080fd5b816020850160208301376000918101602001919091529392505050565b60008060006060848603121561063a57600080fd5b833567ffffffffffffffff81111561065157600080fd5b61065d86828701610596565b935050602084013567ffffffffffffffff81111561067a57600080fd5b61068686828701610596565b925050604084013567ffffffffffffffff8111156106a357600080fd5b6106af86828701610596565b9150509250925092565b6000602082840312156106cb57600080fd5b815180151581146106db57600080fd5b9392505050565b600181811c908216806106f657607f821691505b60208210810361071657634e487b7160e01b600052602260045260246000fd5b50919050565b601f82111561076657806000526020600020601f840160051c810160208510156107435750805b601f840160051c820191505b81811015610763576000815560010161074f565b50505b505050565b815167ffffffffffffffff81111561078557610785610580565b6107998161079384546106e2565b8461071c565b6020601f8211600181146107cd57600083156107b55750848201515b600019600385901b1c1916600184901b178455610763565b600084815260208120601f198516915b828110156107fd57878501518255602094850194600190920191016107dd565b508482101561081b5786840151600019600387901b60f8161c191681555b50505050600190811b0190555056fea264697066735822122072b40a81f9a269f93a8e89f700901cf201fcc68d50d0daea80a35b8fe33b120464736f6c634300081c0033",
  "linkReferences": {},
  "deployedLinkReferences": {}
}