{
  "_format": "hh-sol-artifact-1",
  "contractName": "ProductAtOrganization",
  "sourceName": "contracts/ProductAtOrganization.sol",
  "abi": [
    {
      "inputs": [
        {
          "internalType": "address",
          "name": "_productAddress",
          "type": "address"
        },
        {
          "internalType": "address",
          "name": "_organizationAddress",
          "type": "address"
        },
        {
          "internalType": "address",
          "name": "_manager",
          "type": "address"
        }
      ],
      "stateMutability": "nonpayable",
      "type": "constructor"
    },
    {
      "inputs": [
        {
          "internalType": "string",
          "name": "_timeEvent",
          "type": "string"
        },
        {
          "internalType": "string",
          "name": "_typeEvent",
          "type": "string"
        },
        {
          "internalType": "string",
          "name": "_jsonEvent",
          "type": "string"
        }
      ],
      "name": "addEvent",
      "outputs": [],
      "stateMutability": "nonpayable",
      "type": "function"
    },
    {
      "inputs": [],
      "name": "getEvents",
      "outputs": [
        {
          "components": [
            {
              "internalType": "string",
              "name": "jsonEvent",
              "type": "string"
            },
            {
              "internalType": "string",
              "name": "timeEvent",
              "type": "string"
            },
            {
              "internalType": "string",
              "name": "typeEvent",
              "type": "string"
            }
          ],
          "internalType": "struct ProductAtOrganization.EventInfo[]",
          "name": "",
          "type": "tuple[]"
        }
      ],
      "stateMutability": "view",
      "type": "function"
    },
    {
      "inputs": [],
      "name": "getInfo",
      "outputs": [
        {
          "components": [
            {
              "internalType": "address",
              "name": "organizationAddress",
              "type": "address"
            },
            {
              "internalType": "address",
              "name": "productAddress",
              "type": "address"
            }
          ],
          "internalType": "struct ProductAtOrganization.Info",
          "name": "",
          "type": "tuple"
        }
      ],
      "stateMutability": "view",
      "type": "function"
    },
    {
      "inputs": [],
      "name": "manager",
      "outputs": [
        {
          "internalType": "address",
          "name": "",
          "type": "address"
        }
      ],
      "stateMutability": "view",
      "type": "function"
    },
    {
      "inputs": [],
      "name": "permissions",
      "outputs": [
        {
          "internalType": "contract ProductPermissions",
          "name": "",
          "type": "address"
        }
      ],
      "stateMutability": "view",
      "type": "function"
    }
  ],
  "bytecode": "0x6080604052348015600f57600080fd5b50604051610848380380610848833981016040819052602c91609c565b600380546001600160a01b039283166001600160a01b031991821617909155604080518082019091529282168084529390911660209092018290526001805482169093179092556002805490921617905560d8565b80516001600160a01b0381168114609757600080fd5b919050565b60008060006060848603121560b057600080fd5b60b7846081565b925060c3602085016081565b915060cf604085016081565b90509250925092565b610761806100e76000396000f3fe608060405234801561001057600080fd5b50600436106100575760003560e01c8063404aa8f91461005c578063481c6a751461007a5780634f3900b0146100a55780635a9b0b89146100ba578063ab8c71c014610106575b600080fd5b610064610119565b6040516100719190610404565b60405180910390f35b60035461008d906001600160a01b031681565b6040516001600160a01b039091168152602001610071565b6100b86100b336600461054f565b61032e565b005b6040805180820182526000808252602091820152815180830183526001546001600160a01b03908116808352600254821692840192835284519081529151169181019190915201610071565b60045461008d906001600160a01b031681565b60606000805480602002602001604051908101604052809291908181526020016000905b828210156103255783829060005260206000209060030201604051806060016040529081600082018054610170906105e3565b80601f016020809104026020016040519081016040528092919081815260200182805461019c906105e3565b80156101e95780601f106101be576101008083540402835291602001916101e9565b820191906000526020600020905b8154815290600101906020018083116101cc57829003601f168201915b50505050508152602001600182018054610202906105e3565b80601f016020809104026020016040519081016040528092919081815260200182805461022e906105e3565b801561027b5780601f106102505761010080835404028352916020019161027b565b820191906000526020600020905b81548152906001019060200180831161025e57829003601f168201915b50505050508152602001600282018054610294906105e3565b80601f01602080910402602001604051908101604052809291908181526020018280546102c0906105e3565b801561030d5780601f106102e25761010080835404028352916020019161030d565b820191906000526020600020905b8154815290600101906020018083116102f057829003601f168201915b5050505050815250508152602001906001019061013d565b50505050905090565b604080516060810182528281526020810185905290810183905260008054600181018255908052815182916003027f290decd9548b62a8d60345a988386fc84ba6bc95484008f6362f93160ef3e5630190819061038b908261066c565b50602082015160018201906103a0908261066c565b50604082015160028201906103b5908261066c565b50505050505050565b6000815180845260005b818110156103e4576020818501810151868301820152016103c8565b506000602082860101526020601f19601f83011685010191505092915050565b6000602082016020835280845180835260408501915060408160051b86010192506020860160005b8281101561049e57603f19878603018452815180516060875261045260608801826103be565b90506020820151878203602089015261046b82826103be565b91505060408201519150868103604088015261048781836103be565b96505050602093840193919091019060010161042c565b50929695505050505050565b634e487b7160e01b600052604160045260246000fd5b600082601f8301126104d157600080fd5b813567ffffffffffffffff8111156104eb576104eb6104aa565b604051601f8201601f19908116603f0116810167ffffffffffffffff8111828210171561051a5761051a6104aa565b60405281815283820160200185101561053257600080fd5b816020850160208301376000918101602001919091529392505050565b60008060006060848603121561056457600080fd5b833567ffffffffffffffff81111561057b57600080fd5b610587868287016104c0565b935050602084013567ffffffffffffffff8111156105a457600080fd5b6105b0868287016104c0565b925050604084013567ffffffffffffffff8111156105cd57600080fd5b6105d9868287016104c0565b9150509250925092565b600181811c908216806105f757607f821691505b60208210810361061757634e487b7160e01b600052602260045260246000fd5b50919050565b601f82111561066757806000526020600020601f840160051c810160208510156106445750805b601f840160051c820191505b818110156106645760008155600101610650565b50505b505050565b815167ffffffffffffffff811115610686576106866104aa565b61069a8161069484546105e3565b8461061d565b6020601f8211600181146106ce57600083156106b65750848201515b600019600385901b1c1916600184901b178455610664565b600084815260208120601f198516915b828110156106fe57878501518255602094850194600190920191016106de565b508482101561071c5786840151600019600387901b60f8161c191681555b50505050600190811b0190555056fea2646970667358221220bf774413acf086230d0c02db75886378687cbe997f559939d281f2bb446f2deb64736f6c634300081c0033",
  "linkReferences": {},
  "deployedLinkReferences": {}
}