{
  "_format": "hh-sol-artifact-1",
  "contractName": "SupplyChain",
  "sourceName": "contracts/SupplyChain.sol",
  "abi": [
    {
      "inputs": [
        {
          "internalType": "address[]",
          "name": "_possibleOrganizations",
          "type": "address[]"
        },
        {
          "internalType": "string",
          "name": "_productType",
          "type": "string"
        }
      ],
      "stateMutability": "nonpayable",
      "type": "constructor"
    },
    {
      "anonymous": false,
      "inputs": [
        {
          "indexed": true,
          "internalType": "address",
          "name": "contractAddress",
          "type": "address"
        }
      ],
      "name": "ProductCreated",
      "type": "event"
    },
    {
      "inputs": [
        {
          "internalType": "string",
          "name": "_productName",
          "type": "string"
        },
        {
          "internalType": "string",
          "name": "_productId",
          "type": "string"
        },
        {
          "internalType": "address",
          "name": "_organizationAddress",
          "type": "address"
        }
      ],
      "name": "NewProduct",
      "outputs": [],
      "stateMutability": "nonpayable",
      "type": "function"
    },
    {
      "inputs": [
        {
          "internalType": "address",
          "name": "orgAddress",
          "type": "address"
        }
      ],
      "name": "acceptParticipation",
      "outputs": [],
      "stateMutability": "nonpayable",
      "type": "function"
    },
    {
      "inputs": [
        {
          "internalType": "uint256",
          "name": "",
          "type": "uint256"
        }
      ],
      "name": "deployedProducts",
      "outputs": [
        {
          "internalType": "address",
          "name": "",
          "type": "address"
        }
      ],
      "stateMutability": "view",
      "type": "function"
    },
    {
      "inputs": [],
      "name": "getDeployedProducts",
      "outputs": [
        {
          "internalType": "address[]",
          "name": "",
          "type": "address[]"
        }
      ],
      "stateMutability": "view",
      "type": "function"
    },
    {
      "inputs": [],
      "name": "getParticipationManagerAddress",
      "outputs": [
        {
          "internalType": "address",
          "name": "",
          "type": "address"
        }
      ],
      "stateMutability": "view",
      "type": "function"
    },
    {
      "inputs": [],
      "name": "participationManagerAddress",
      "outputs": [
        {
          "internalType": "address",
          "name": "",
          "type": "address"
        }
      ],
      "stateMutability": "view",
      "type": "function"
    },
    {
      "inputs": [],
      "name": "productType",
      "outputs": [
        {
          "internalType": "string",
          "name": "",
          "type": "string"
        }
      ],
      "stateMutability": "view",
      "type": "function"
    }
  ],
  "bytecode": "0x608060405234801561001057600080fd5b50604051612fb5380380612fb583398101604081905261002f91610170565b600061003b82826102ea565b508160405161004990610098565b61005391906103a8565b604051809103906000f08015801561006f573d6000803e3d6000fd5b50600280546001600160a01b0319166001600160a01b0392909216919091179055506103f49050565b61055e80612a5783390190565b634e487b7160e01b600052604160045260246000fd5b604051601f8201601f191681016001600160401b03811182821017156100e3576100e36100a5565b604052919050565b600082601f8301126100fc57600080fd5b81516001600160401b03811115610115576101156100a5565b610128601f8201601f19166020016100bb565b81815284602083860101111561013d57600080fd5b60005b8281101561015c57602081860181015183830182015201610140565b506000918101602001919091529392505050565b6000806040838503121561018357600080fd5b82516001600160401b0381111561019957600080fd5b8301601f810185136101aa57600080fd5b80516001600160401b038111156101c3576101c36100a5565b8060051b6101d3602082016100bb565b918252602081840181019290810190888411156101ef57600080fd5b6020850194505b8385101561022957845192506001600160a01b038316831461021757600080fd5b828252602094850194909101906101f6565b6020880151909650935050506001600160401b03821115905061024b57600080fd5b610257858286016100eb565b9150509250929050565b600181811c9082168061027557607f821691505b60208210810361029557634e487b7160e01b600052602260045260246000fd5b50919050565b601f8211156102e557806000526020600020601f840160051c810160208510156102c25750805b601f840160051c820191505b818110156102e257600081556001016102ce565b50505b505050565b81516001600160401b03811115610303576103036100a5565b610317816103118454610261565b8461029b565b6020601f82116001811461034b57600083156103335750848201515b600019600385901b1c1916600184901b1784556102e2565b600084815260208120601f198516915b8281101561037b578785015182556020948501946001909201910161035b565b50848210156103995786840151600019600387901b60f8161c191681555b50505050600190811b01905550565b602080825282518282018190526000918401906040840190835b818110156103e95783516001600160a01b03168352602093840193909201916001016103c2565b509095945050505050565b612654806104036000396000f3fe608060405234801561001057600080fd5b506004361061007d5760003560e01c8063a578861d1161005b578063a578861d146100dc578063b92e1a91146100f1578063d4631f4914610102578063e2c47c991461011557600080fd5b8063435c2e38146100825780635698e40e146100b25780636121c61d146100c7575b600080fd5b6100956100903660046104a9565b610128565b6040516001600160a01b0390911681526020015b60405180910390f35b6100c56100c03660046104da565b610152565b005b6100cf6101b7565b6040516100a99190610544565b6100e4610245565b6040516100a9919061059c565b6002546001600160a01b0316610095565b6100c5610110366004610666565b6102a7565b600254610095906001600160a01b031681565b6001818154811061013857600080fd5b6000918252602090912001546001600160a01b0316905081565b600254604051632b4c720760e11b81526001600160a01b038381166004830152909116908190635698e40e90602401600060405180830381600087803b15801561019b57600080fd5b505af11580156101af573d6000803e3d6000fd5b505050505050565b600080546101c4906106e3565b80601f01602080910402602001604051908101604052809291908181526020018280546101f0906106e3565b801561023d5780601f106102125761010080835404028352916020019161023d565b820191906000526020600020905b81548152906001019060200180831161022057829003601f168201915b505050505081565b6060600180548060200260200160405190810160405280929190818152602001828054801561029d57602002820191906000526020600020905b81546001600160a01b0316815260019091019060200180831161027f575b5050505050905090565b60025460408051636e0cb86f60e01b815290516001600160a01b03909216918291636e0cb86f9160048083019260209291908290030181865afa1580156102f2573d6000803e3d6000fd5b505050506040513d601f19601f82011682018060405250810190610316919061071d565b61037d5760405162461bcd60e51b815260206004820152602e60248201527f416c6c206f7267616e697a6174696f6e73206e65656420746f2061636365707460448201526d103830b93a34b1b4b830ba34b7b760911b606482015260840160405180910390fd5b6000848484846001600160a01b0316637ee0d0fd6040518163ffffffff1660e01b8152600401600060405180830381865afa1580156103c0573d6000803e3d6000fd5b505050506040513d6000823e601f3d908101601f191682016040526103e8919081019061073f565b6040516103f49061049c565b61040194939291906107f8565b604051809103906000f08015801561041d573d6000803e3d6000fd5b5060018054808201825560009182527fb10e2d527612073b26eecdfd717e6a320cf44b4afac2b0732d9fcbe2b7fa0cf60180546001600160a01b0319166001600160a01b038416908117909155604051929350917f8c13150fc78b6c00b60262790df304fd55ef36a935a98feefd67391de7bfa0de9190a25050505050565b611dde8061084183390190565b6000602082840312156104bb57600080fd5b5035919050565b6001600160a01b03811681146104d757600080fd5b50565b6000602082840312156104ec57600080fd5b81356104f7816104c2565b9392505050565b6000815180845260005b8181101561052457602081850181015186830182015201610508565b506000602082860101526020601f19601f83011685010191505092915050565b6020815260006104f760208301846104fe565b600081518084526020840193506020830160005b828110156105925781516001600160a01b031686526020958601959091019060010161056b565b5093949350505050565b6020815260006104f76020830184610557565b634e487b7160e01b600052604160045260246000fd5b604051601f8201601f1916810167ffffffffffffffff811182821017156105ee576105ee6105af565b604052919050565b600082601f83011261060757600080fd5b813567ffffffffffffffff811115610621576106216105af565b610634601f8201601f19166020016105c5565b81815284602083860101111561064957600080fd5b816020850160208301376000918101602001919091529392505050565b60008060006060848603121561067b57600080fd5b833567ffffffffffffffff81111561069257600080fd5b61069e868287016105f6565b935050602084013567ffffffffffffffff8111156106bb57600080fd5b6106c7868287016105f6565b92505060408401356106d8816104c2565b809150509250925092565b600181811c908216806106f757607f821691505b60208210810361071757634e487b7160e01b600052602260045260246000fd5b50919050565b60006020828403121561072f57600080fd5b815180151581146104f757600080fd5b60006020828403121561075157600080fd5b815167ffffffffffffffff81111561076857600080fd5b8201601f8101841361077957600080fd5b805167ffffffffffffffff811115610793576107936105af565b8060051b6107a3602082016105c5565b918252602081840181019290810190878411156107bf57600080fd5b6020850194505b838510156107ed57845192506107db836104c2565b828252602094850194909101906107c6565b979650505050505050565b60808152600061080b60808301876104fe565b828103602084015261081d81876104fe565b6001600160a01b0386166040850152838103606085015290506107ed818561055756fe608060405234801561001057600080fd5b50604051611dde380380611dde83398101604081905261002f9161041b565b805181906100449060009060208401906102ad565b5060005b81518110156100e55760005b82518110156100dc57600180600085858151811061007457610074610536565b60200260200101516001600160a01b03166001600160a01b0316815260200190815260200160002060008584815181106100b0576100b0610536565b6020908102919091018101516001600160a01b0316825281019190915260400160002055600101610054565b50600101610048565b5050604080518082019091528481526020810184905260028061010887826105d5565b506020820151600182019061011d90826105d5565b505060058054336001600160a01b0319918216811790925560408051808201825292835242602084019081526007805460018101825560009190915293517fa66cc928b5edb82af9bd49922954155ab7b0942694bea4ce44661d9a8736c688600290950294850180549094166001600160a01b039091161790925590517fa66cc928b5edb82af9bd49922954155ab7b0942694bea4ce44661d9a8736c68990920191909155516101cd9150610312565b604051809103906000f0801580156101e9573d6000803e3d6000fd5b50600880546001600160a01b0319166001600160a01b0392831690811790915560405163d9181cd360e01b815230600482015291841660248301523360448301529063d9181cd3906064016020604051808303816000875af1158015610253573d6000803e3d6000fd5b505050506040513d601f19601f820116820180604052508101906102779190610693565b6001600160a01b03928316600090815260046020526040902080546001600160a01b0319169190931617909155506106b5915050565b828054828255906000526020600020908101928215610302579160200282015b8281111561030257825182546001600160a01b0319166001600160a01b039091161782556020909201916001909101906102cd565b5061030e92915061031f565b5090565b6109be8061142083390190565b5b8082111561030e5760008155600101610320565b634e487b7160e01b600052604160045260246000fd5b604051601f8201601f191681016001600160401b038111828210171561037257610372610334565b604052919050565b600082601f83011261038b57600080fd5b81516001600160401b038111156103a4576103a4610334565b6103b7601f8201601f191660200161034a565b8181528460208386010111156103cc57600080fd5b60005b828110156103eb576020818601810151838301820152016103cf565b506000918101602001919091529392505050565b80516001600160a01b038116811461041657600080fd5b919050565b6000806000806080858703121561043157600080fd5b84516001600160401b0381111561044757600080fd5b6104538782880161037a565b602087015190955090506001600160401b0381111561047157600080fd5b61047d8782880161037a565b93505061048c604086016103ff565b60608601519092506001600160401b038111156104a857600080fd5b8501601f810187136104b957600080fd5b80516001600160401b038111156104d2576104d2610334565b8060051b6104e26020820161034a565b9182526020818401810192908101908a8411156104fe57600080fd5b6020850194505b8385101561052757610516856103ff565b825260209485019490910190610505565b979a9699509497505050505050565b634e487b7160e01b600052603260045260246000fd5b600181811c9082168061056057607f821691505b60208210810361058057634e487b7160e01b600052602260045260246000fd5b50919050565b601f8211156105d057806000526020600020601f840160051c810160208510156105ad5750805b601f840160051c820191505b818110156105cd57600081556001016105b9565b50505b505050565b81516001600160401b038111156105ee576105ee610334565b610602816105fc845461054c565b84610586565b6020601f821160018114610636576000831561061e5750848201515b600019600385901b1c1916600184901b1784556105cd565b600084815260208120601f198516915b828110156106665787850151825560209485019460019092019101610646565b50848210156106845786840151600019600387901b60f8161c191681555b50505050600190811b01905550565b6000602082840312156106a557600080fd5b6106ae826103ff565b9392505050565b610d5c806106c46000396000f3fe608060405234801561001057600080fd5b50600436106100ea5760003560e01c80636f4cf1831161008c578063cde6804111610066578063cde6804114610200578063e791221e1461024d578063f28ad72514610286578063fc83cd82146102af57600080fd5b80636f4cf183146101b85780639a1a764c146101cd578063a00fff6f146101ed57600080fd5b806321d0326f116100c857806321d0326f146101545780633ab0ae611461017f578063481c6a75146101925780634e1d009f146101a557600080fd5b80630952c504146100ef57806317d7de7c1461010457806319159f2014610122575b600080fd5b6101026100fd366004610abc565b6102c2565b005b61010c6103b9565b6040516101199190610ae0565b60405180910390f35b610135610130366004610b2e565b61044e565b604080516001600160a01b039093168352602083019190915201610119565b610167610162366004610b2e565b610486565b6040516001600160a01b039091168152602001610119565b61016761018d366004610abc565b6104b0565b600554610167906001600160a01b031681565b6101026101b3366004610abc565b610548565b6101c0610721565b6040516101199190610b47565b6101e06101db366004610abc565b610796565b6040516101199190610b9f565b600654610167906001600160a01b031681565b61023d61020e366004610be0565b6001600160a01b0380831660009081526001602081815260408084209486168452939052919020541492915050565b6040519015158152602001610119565b61027861025b366004610be0565b600160209081526000928352604080842090915290825290205481565b604051908152602001610119565b610167610294366004610abc565b6004602052600090815260409020546001600160a01b031681565b6101026102bd366004610c19565b61093f565b6005546001600160a01b031633146103325760405162461bcd60e51b815260206004820152602860248201527f4f6e6c7920746865206d616e616765722063616e20706572666f726d20746869604482015267399030b1ba34b7b760c11b60648201526084015b60405180910390fd5b6001600160a01b0381166103975760405162461bcd60e51b815260206004820152602660248201527f4e6577206d616e616765722063616e6e6f7420626520746865207a65726f206160448201526564647265737360d01b6064820152608401610329565b600680546001600160a01b0319166001600160a01b0392909216919091179055565b6060600260000180546103cb90610c5a565b80601f01602080910402602001604051908101604052809291908181526020018280546103f790610c5a565b80156104445780601f1061041957610100808354040283529160200191610444565b820191906000526020600020905b81548152906001019060200180831161042757829003601f168201915b5050505050905090565b6007818154811061045e57600080fd5b6000918252602090912060029091020180546001909101546001600160a01b03909116915082565b6000818154811061049657600080fd5b6000918252602090912001546001600160a01b0316905081565b6001600160a01b038181166000908152600460205260408120549091166105295760405162461bcd60e51b815260206004820152602760248201527f50726f64756374206e6f7420666f756e6420666f722074686973206f7267616e60448201526634bd30ba34b7b760c91b6064820152608401610329565b506001600160a01b039081166000908152600460205260409020541690565b806001600160a01b031663e4183cb16040518163ffffffff1660e01b8152600401602060405180830381865afa158015610586573d6000803e3d6000fd5b505050506040513d601f19601f820116820180604052508101906105aa9190610c94565b6105ef5760405162461bcd60e51b81526020600482015260166024820152754f6e6c79206f776e65722063616e20617070726f766560501b6044820152606401610329565b6006546001600160a01b031633146106635760405162461bcd60e51b815260206004820152603160248201527f4f6e6c79207468652070656e64696e67206d616e616765722063616e206170706044820152703937bb32903a3432903a3930b739b332b960791b6064820152608401610329565b60068054600580546001600160a01b038084166001600160a01b0319928316811784559382169094556040805180820190915292835242602084019081526007805460018101825560009190915293517fa66cc928b5edb82af9bd49922954155ab7b0942694bea4ce44661d9a8736c6886002909502948501805490931690861617909155517fa66cc928b5edb82af9bd49922954155ab7b0942694bea4ce44661d9a8736c689909201919091555461071e918391166109f9565b50565b60606007805480602002602001604051908101604052809291908181526020016000905b8282101561078d576000848152602090819020604080518082019091526002850290910180546001600160a01b03168252600190810154828401529083529092019101610745565b50505050905090565b60606000805b600054811015610815576001600160a01b0384166000908152600160205260408120815482908190859081106107d4576107d4610cb6565b60009182526020808320909101546001600160a01b03168352820192909252604001902054131561080d578161080981610ccc565b9250505b60010161079c565b5060008167ffffffffffffffff81111561083157610831610cf3565b60405190808252806020026020018201604052801561085a578160200160208202803683370190505b5090506000805b600054811015610935576001600160a01b03861660009081526001602052604081208154829081908590811061089957610899610cb6565b60009182526020808320909101546001600160a01b03168352820192909252604001902054131561092d57600081815481106108d7576108d7610cb6565b9060005260206000200160009054906101000a90046001600160a01b031683838151811061090757610907610cb6565b6001600160a01b03909216602092830291909101909101528161092981610ccc565b9250505b600101610861565b5090949350505050565b80158061094c5750806001145b6109985760405162461bcd60e51b815260206004820152601a60248201527f5065726d697373696f6e206d7573742062652030206f7220312e0000000000006044820152606401610329565b6001600160a01b0383811660008181526001602090815260408083209487168084529482529182902085905590518481527f6a442bd8106d9e09bc459120a0e45bb653c8ea137a72cdcf28d37f97ebe65021910160405180910390a3505050565b60085460405163d9181cd360e01b81523060048201526001600160a01b03848116602483015283811660448301529091169063d9181cd3906064016020604051808303816000875af1158015610a53573d6000803e3d6000fd5b505050506040513d601f19601f82011682018060405250810190610a779190610d09565b6001600160a01b03928316600090815260046020526040902080546001600160a01b031916919093161790915550565b6001600160a01b038116811461071e57600080fd5b600060208284031215610ace57600080fd5b8135610ad981610aa7565b9392505050565b602081526000825180602084015260005b81811015610b0e5760208186018101516040868401015201610af1565b506000604082850101526040601f19601f83011684010191505092915050565b600060208284031215610b4057600080fd5b5035919050565b602080825282518282018190526000918401906040840190835b81811015610b9457835180516001600160a01b031684526020908101518185015290930192604090920191600101610b61565b509095945050505050565b602080825282518282018190526000918401906040840190835b81811015610b945783516001600160a01b0316835260209384019390920191600101610bb9565b60008060408385031215610bf357600080fd5b8235610bfe81610aa7565b91506020830135610c0e81610aa7565b809150509250929050565b600080600060608486031215610c2e57600080fd5b8335610c3981610aa7565b92506020840135610c4981610aa7565b929592945050506040919091013590565b600181811c90821680610c6e57607f821691505b602082108103610c8e57634e487b7160e01b600052602260045260246000fd5b50919050565b600060208284031215610ca657600080fd5b81518015158114610ad957600080fd5b634e487b7160e01b600052603260045260246000fd5b600060018201610cec57634e487b7160e01b600052601160045260246000fd5b5060010190565b634e487b7160e01b600052604160045260246000fd5b600060208284031215610d1b57600080fd5b8151610ad981610aa756fea2646970667358221220d8f5bdc10ee4184dc36c14a71f2066c649b678c2e1505b6e0210ae3cde48e55a64736f6c634300081c00336080604052348015600f57600080fd5b5061099f8061001f6000396000f3fe608060405234801561001057600080fd5b506004361061002b5760003560e01c8063d9181cd314610030575b600080fd5b61004361003e3660046100de565b61005f565b6040516001600160a01b03909116815260200160405180910390f35b6000838383604051610070906100b5565b6001600160a01b03938416815291831660208301529091166040820152606001604051809103906000f0801580156100ac573d6000803e3d6000fd5b50949350505050565b6108488061012283390190565b80356001600160a01b03811681146100d957600080fd5b919050565b6000806000606084860312156100f357600080fd5b6100fc846100c2565b925061010a602085016100c2565b9150610118604085016100c2565b9050925092509256fe6080604052348015600f57600080fd5b50604051610848380380610848833981016040819052602c91609c565b600380546001600160a01b039283166001600160a01b031991821617909155604080518082019091529282168084529390911660209092018290526001805482169093179092556002805490921617905560d8565b80516001600160a01b0381168114609757600080fd5b919050565b60008060006060848603121560b057600080fd5b60b7846081565b925060c3602085016081565b915060cf604085016081565b90509250925092565b610761806100e76000396000f3fe608060405234801561001057600080fd5b50600436106100575760003560e01c8063404aa8f91461005c578063481c6a751461007a5780634f3900b0146100a55780635a9b0b89146100ba578063ab8c71c014610106575b600080fd5b610064610119565b6040516100719190610404565b60405180910390f35b60035461008d906001600160a01b031681565b6040516001600160a01b039091168152602001610071565b6100b86100b336600461054f565b61032e565b005b6040805180820182526000808252602091820152815180830183526001546001600160a01b03908116808352600254821692840192835284519081529151169181019190915201610071565b60045461008d906001600160a01b031681565b60606000805480602002602001604051908101604052809291908181526020016000905b828210156103255783829060005260206000209060030201604051806060016040529081600082018054610170906105e3565b80601f016020809104026020016040519081016040528092919081815260200182805461019c906105e3565b80156101e95780601f106101be576101008083540402835291602001916101e9565b820191906000526020600020905b8154815290600101906020018083116101cc57829003601f168201915b50505050508152602001600182018054610202906105e3565b80601f016020809104026020016040519081016040528092919081815260200182805461022e906105e3565b801561027b5780601f106102505761010080835404028352916020019161027b565b820191906000526020600020905b81548152906001019060200180831161025e57829003601f168201915b50505050508152602001600282018054610294906105e3565b80601f01602080910402602001604051908101604052809291908181526020018280546102c0906105e3565b801561030d5780601f106102e25761010080835404028352916020019161030d565b820191906000526020600020905b8154815290600101906020018083116102f057829003601f168201915b5050505050815250508152602001906001019061013d565b50505050905090565b604080516060810182528281526020810185905290810183905260008054600181018255908052815182916003027f290decd9548b62a8d60345a988386fc84ba6bc95484008f6362f93160ef3e5630190819061038b908261066c565b50602082015160018201906103a0908261066c565b50604082015160028201906103b5908261066c565b50505050505050565b6000815180845260005b818110156103e4576020818501810151868301820152016103c8565b506000602082860101526020601f19601f83011685010191505092915050565b6000602082016020835280845180835260408501915060408160051b86010192506020860160005b8281101561049e57603f19878603018452815180516060875261045260608801826103be565b90506020820151878203602089015261046b82826103be565b91505060408201519150868103604088015261048781836103be565b96505050602093840193919091019060010161042c565b50929695505050505050565b634e487b7160e01b600052604160045260246000fd5b600082601f8301126104d157600080fd5b813567ffffffffffffffff8111156104eb576104eb6104aa565b604051601f8201601f19908116603f0116810167ffffffffffffffff8111828210171561051a5761051a6104aa565b60405281815283820160200185101561053257600080fd5b816020850160208301376000918101602001919091529392505050565b60008060006060848603121561056457600080fd5b833567ffffffffffffffff81111561057b57600080fd5b610587868287016104c0565b935050602084013567ffffffffffffffff8111156105a457600080fd5b6105b0868287016104c0565b925050604084013567ffffffffffffffff8111156105cd57600080fd5b6105d9868287016104c0565b9150509250925092565b600181811c908216806105f757607f821691505b60208210810361061757634e487b7160e01b600052602260045260246000fd5b50919050565b601f82111561066757806000526020600020601f840160051c810160208510156106445750805b601f840160051c820191505b818110156106645760008155600101610650565b50505b505050565b815167ffffffffffffffff811115610686576106866104aa565b61069a8161069484546105e3565b8461061d565b6020601f8211600181146106ce57600083156106b65750848201515b600019600385901b1c1916600184901b178455610664565b600084815260208120601f198516915b828110156106fe57878501518255602094850194600190920191016106de565b508482101561071c5786840151600019600387901b60f8161c191681555b50505050600190811b0190555056fea2646970667358221220bf774413acf086230d0c02db75886378687cbe997f559939d281f2bb446f2deb64736f6c634300081c0033a2646970667358221220ef24ee043a5b535acd0dc487234bd2a92529dc4308e050dc64b8cada2299218964736f6c634300081c0033a2646970667358221220233214b749ff3df87cf604ce3a86639dafb46fa7ecf7641f0fc8ce3f15da00b964736f6c634300081c0033608060405234801561001057600080fd5b5060405161055e38038061055e83398101604081905261002f91610154565b80516100429060009060208401906100a8565b5060005b81518110156100a15760006001600084848151811061006757610067610223565b6020908102919091018101516001600160a01b03168252810191909152604001600020805460ff1916911515919091179055600101610046565b5050610239565b8280548282559060005260206000209081019282156100fd579160200282015b828111156100fd57825182546001600160a01b0319166001600160a01b039091161782556020909201916001909101906100c8565b5061010992915061010d565b5090565b5b80821115610109576000815560010161010e565b634e487b7160e01b600052604160045260246000fd5b80516001600160a01b038116811461014f57600080fd5b919050565b60006020828403121561016657600080fd5b81516001600160401b0381111561017c57600080fd5b8201601f8101841361018d57600080fd5b80516001600160401b038111156101a6576101a6610122565b604051600582901b90603f8201601f191681016001600160401b03811182821017156101d4576101d4610122565b6040529182526020818401810192908101878411156101f257600080fd5b6020850194505b838510156102185761020a85610138565b8152602094850194016101f9565b509695505050505050565b634e487b7160e01b600052603260045260246000fd5b610316806102486000396000f3fe608060405234801561001057600080fd5b506004361061004c5760003560e01c80632b34af70146100515780635698e40e146100895780636e0cb86f1461009e5780637ee0d0fd146100a6575b600080fd5b61007461005f36600461024e565b60016020526000908152604090205460ff1681565b60405190151581526020015b60405180910390f35b61009c61009736600461024e565b6100bb565b005b610074610184565b6100ae6101ec565b604051610080919061027e565b6000805b60005481101561011157826001600160a01b0316600082815481106100e6576100e66102ca565b6000918252602090912001546001600160a01b0316036101095760019150610111565b6001016100bf565b508061015c5760405162461bcd60e51b815260206004820152601660248201527513dc99d85b9a5e985d1a5bdb881b9bdd08199bdd5b9960521b604482015260640160405180910390fd5b506001600160a01b03166000908152600160208190526040909120805460ff19169091179055565b6000805b6000548110156101e457600160008083815481106101a8576101a86102ca565b60009182526020808320909101546001600160a01b0316835282019290925260400190205460ff166101dc57600091505090565b600101610188565b506001905090565b6060600080548060200260200160405190810160405280929190818152602001828054801561024457602002820191906000526020600020905b81546001600160a01b03168152600190910190602001808311610226575b5050505050905090565b60006020828403121561026057600080fd5b81356001600160a01b038116811461027757600080fd5b9392505050565b602080825282518282018190526000918401906040840190835b818110156102bf5783516001600160a01b0316835260209384019390920191600101610298565b509095945050505050565b634e487b7160e01b600052603260045260246000fdfea2646970667358221220d67bf7936a0c6ee6c20a3c8c574a288483a7145d71d0228a570d76b04382155864736f6c634300081c0033",
  "linkReferences": {},
  "deployedLinkReferences": {}
}