{
  "_format": "hh-sol-artifact-1",
  "contractName": "Organization",
  "sourceName": "contracts/Organization.sol",
  "abi": [
    {
      "inputs": [
        {
          "internalType": "string",
          "name": "_url",
          "type": "string"
        },
        {
          "internalType": "string",
          "name": "_companyName",
          "type": "string"
        }
      ],
      "stateMutability": "nonpayable",
      "type": "constructor"
    },
    {
      "inputs": [],
      "name": "IsOwner",
      "outputs": [
        {
          "internalType": "bool",
          "name": "",
          "type": "bool"
        }
      ],
      "stateMutability": "view",
      "type": "function"
    },
    {
      "inputs": [],
      "name": "disable",
      "outputs": [],
      "stateMutability": "nonpayable",
      "type": "function"
    },
    {
      "inputs": [],
      "name": "getInfo",
      "outputs": [
        {
          "components": [
            {
              "internalType": "string",
              "name": "companyName",
              "type": "string"
            },
            {
              "internalType": "string",
              "name": "urlCompany",
              "type": "string"
            },
            {
              "internalType": "bool",
              "name": "isEnabled",
              "type": "bool"
            }
          ],
          "internalType": "struct Organization.Info",
          "name": "",
          "type": "tuple"
        }
      ],
      "stateMutability": "view",
      "type": "function"
    },
    {
      "inputs": [],
      "name": "owner",
      "outputs": [
        {
          "internalType": "address",
          "name": "",
          "type": "address"
        }
      ],
      "stateMutability": "view",
      "type": "function"
    },
    {
      "inputs": [
        {
          "internalType": "string",
          "name": "_companyName",
          "type": "string"
        }
      ],
      "name": "setCompanyName",
      "outputs": [],
      "stateMutability": "nonpayable",
      "type": "function"
    },
    {
      "inputs": [
        {
          "internalType": "string",
          "name": "_urlCompany",
          "type": "string"
        }
      ],
      "name": "setUrlCompany",
      "outputs": [],
      "stateMutability": "nonpayable",
      "type": "function"
    }
  ],
  "bytecode": "0x608060405234801561001057600080fd5b506040516108e73803806108e783398101604081905261002f9161015d565b600380546001600160a01b03191633179055604080516060810182528281526020810184905260019181019190915260008061006b848261024f565b5060208201516001820190610080908261024f565b50604091909101516002909101805460ff19169115159190911790555061030d9050565b634e487b7160e01b600052604160045260246000fd5b600082601f8301126100cb57600080fd5b81516001600160401b038111156100e4576100e46100a4565b604051601f8201601f19908116603f011681016001600160401b0381118282101715610112576101126100a4565b60405281815283820160200185101561012a57600080fd5b60005b828110156101495760208186018101518383018201520161012d565b506000918101602001919091529392505050565b6000806040838503121561017057600080fd5b82516001600160401b0381111561018657600080fd5b610192858286016100ba565b602085015190935090506001600160401b038111156101b057600080fd5b6101bc858286016100ba565b9150509250929050565b600181811c908216806101da57607f821691505b6020821081036101fa57634e487b7160e01b600052602260045260246000fd5b50919050565b601f82111561024a57806000526020600020601f840160051c810160208510156102275750805b601f840160051c820191505b818110156102475760008155600101610233565b50505b505050565b81516001600160401b03811115610268576102686100a4565b61027c8161027684546101c6565b84610200565b6020601f8211600181146102b057600083156102985750848201515b600019600385901b1c1916600184901b178455610247565b600084815260208120601f198516915b828110156102e057878501518255602094850194600190920191016102c0565b50848210156102fe5786840151600019600387901b60f8161c191681555b50505050600190811b01905550565b6105cb8061031c6000396000f3fe608060405234801561001057600080fd5b50600436106100615760003560e01c806268315b146100665780632f2770db1461007b5780635a9b0b89146100835780638da5cb5b146100a1578063e4183cb1146100cc578063eb3313f0146100ea575b600080fd5b6100796100743660046102fc565b6100fd565b005b61007961010d565b61008b610177565b60405161009891906103fb565b60405180910390f35b6003546100b4906001600160a01b031681565b6040516001600160a01b039091168152602001610098565b6003546001600160a01b031633146040519015158152602001610098565b6100796100f83660046102fc565b6102da565b600161010982826104d6565b5050565b6003546001600160a01b0316331461016b5760405162461bcd60e51b815260206004820152601760248201527f43616c6c6572206973206e6f7420746865206f776e6572000000000000000000604482015260640160405180910390fd5b6002805460ff19169055565b6040805160608082018352808252602082015260009181019190915260006040518060600160405290816000820180546101b09061044d565b80601f01602080910402602001604051908101604052809291908181526020018280546101dc9061044d565b80156102295780601f106101fe57610100808354040283529160200191610229565b820191906000526020600020905b81548152906001019060200180831161020c57829003601f168201915b505050505081526020016001820180546102429061044d565b80601f016020809104026020016040519081016040528092919081815260200182805461026e9061044d565b80156102bb5780601f10610290576101008083540402835291602001916102bb565b820191906000526020600020905b81548152906001019060200180831161029e57829003601f168201915b50505091835250506002919091015460ff161515602090910152919050565b600061010982826104d6565b634e487b7160e01b600052604160045260246000fd5b60006020828403121561030e57600080fd5b813567ffffffffffffffff81111561032557600080fd5b8201601f8101841361033657600080fd5b803567ffffffffffffffff811115610350576103506102e6565b604051601f8201601f19908116603f0116810167ffffffffffffffff8111828210171561037f5761037f6102e6565b60405281815282820160200186101561039757600080fd5b81602084016020830137600091810160200191909152949350505050565b6000815180845260005b818110156103db576020818501810151868301820152016103bf565b506000602082860101526020601f19601f83011685010191505092915050565b60208152600082516060602084015261041760808401826103b5565b90506020840151601f1984830301604085015261043482826103b5565b9150506040840151151560608401528091505092915050565b600181811c9082168061046157607f821691505b60208210810361048157634e487b7160e01b600052602260045260246000fd5b50919050565b601f8211156104d157806000526020600020601f840160051c810160208510156104ae5750805b601f840160051c820191505b818110156104ce57600081556001016104ba565b50505b505050565b815167ffffffffffffffff8111156104f0576104f06102e6565b610504816104fe845461044d565b84610487565b6020601f82116001811461053857600083156105205750848201515b600019600385901b1c1916600184901b1784556104ce565b600084815260208120601f198516915b828110156105685787850151825560209485019460019092019101610548565b50848210156105865786840151600019600387901b60f8161c191681555b50505050600190811b0190555056fea26469706673582212208fe168ae912968f5abea9e6d93bbbce0878f99581a2a68c9f2dcddef7c99a1ab64736f6c634300081c0033",
  "linkReferences": {},
  "deployedLinkReferences": {}
}