{
  "_format": "hh-sol-artifact-1",
  "contractName": "SupplyChainRegistry",
  "sourceName": "contracts/SupplyChainRegistry.sol",
  "abi": [
    {
      "anonymous": false,
      "inputs": [
        {
          "indexed": true,
          "internalType": "address",
          "name": "organization",
          "type": "address"
        },
        {
          "indexed": true,
          "internalType": "address",
          "name": "supplyChain",
          "type": "address"
        }
      ],
      "name": "SupplyChainRegistered",
      "type": "event"
    },
    {
      "inputs": [
        {
          "internalType": "address",
          "name": "org",
          "type": "address"
        }
      ],
      "name": "getSupplyChainsForOrg",
      "outputs": [
        {
          "internalType": "address[]",
          "name": "",
          "type": "address[]"
        }
      ],
      "stateMutability": "view",
      "type": "function"
    },
    {
      "inputs": [
        {
          "internalType": "address",
          "name": "org",
          "type": "address"
        },
        {
          "internalType": "address",
          "name": "supplyChain",
          "type": "address"
        }
      ],
      "name": "registerParticipation",
      "outputs": [],
      "stateMutability": "nonpayable",
      "type": "function"
    }
  ],
  "bytecode": "0x6080604052348015600f57600080fd5b506102488061001f6000396000f3fe608060405234801561001057600080fd5b50600436106100365760003560e01c806395c733b51461003b5780639f47ffb114610050575b600080fd5b61004e610049366004610171565b610079565b005b61006361005e3660046101a4565b6100e1565b60405161007091906101c6565b60405180910390f35b6001600160a01b03828116600081815260208181526040808320805460018101825590845291832090910180546001600160a01b0319169486169485179055517f0a63eceebca417c8030ff1c50ef47b484613b8223b02c40f85877f6b635786659190a35050565b6001600160a01b0381166000908152602081815260409182902080548351818402810184019094528084526060939283018282801561014957602002820191906000526020600020905b81546001600160a01b0316815260019091019060200180831161012b575b50505050509050919050565b80356001600160a01b038116811461016c57600080fd5b919050565b6000806040838503121561018457600080fd5b61018d83610155565b915061019b60208401610155565b90509250929050565b6000602082840312156101b657600080fd5b6101bf82610155565b9392505050565b602080825282518282018190526000918401906040840190835b818110156102075783516001600160a01b03168352602093840193909201916001016101e0565b50909594505050505056fea2646970667358221220503e6546879edb247fc974d6ecb5bded469669adf31aa335dfbcc77ea3157fea64736f6c634300081c0033",
  "linkReferences": {},
  "deployedLinkReferences": {}
}