{
  "_format": "hh-sol-artifact-1",
  "contractName": "SupplyChainRegistry",
  "sourceName": "contracts/SupplyChainRegistry.sol",
  "abi": [
    {
      "anonymous": false,
      "inputs": [
        {
          "indexed": true,
          "internalType": "address",
          "name": "organization",
          "type": "address"
        },
        {
          "indexed": true,
          "internalType": "address",
          "name": "supplyChain",
          "type": "address"
        }
      ],
      "name": "SupplyChainRegistered",
      "type": "event"
    },
    {
      "inputs": [
        {
          "internalType": "uint256",
          "name": "",
          "type": "uint256"
        }
      ],
      "name": "deployedOrgs",
      "outputs": [
        {
          "internalType": "address",
          "name": "",
          "type": "address"
        }
      ],
      "stateMutability": "view",
      "type": "function"
    },
    {
      "inputs": [],
      "name": "getAllMySupplyChains",
      "outputs": [
        {
          "internalType": "address[]",
          "name": "",
          "type": "address[]"
        }
      ],
      "stateMutability": "view",
      "type": "function"
    },
    {
      "inputs": [
        {
          "internalType": "address",
          "name": "org",
          "type": "address"
        },
        {
          "internalType": "address",
          "name": "supplyChain",
          "type": "address"
        }
      ],
      "name": "registerParticipation",
      "outputs": [],
      "stateMutability": "nonpayable",
      "type": "function"
    }
  ],
  "bytecode": "0x6080604052348015600f57600080fd5b506103ce8061001f6000396000f3fe608060405234801561001057600080fd5b50600436106100415760003560e01c80631b4616641461004657806395c733b514610076578063dc97354c1461008b575b600080fd5b6100596100543660046102a8565b6100a0565b6040516001600160a01b0390911681526020015b60405180910390f35b6100896100843660046102d9565b6100ca565b005b61009361016e565b60405161006d9190610312565b600181815481106100b057600080fd5b6000918252602090912001546001600160a01b0316905081565b6001600160a01b0380831660008181526020818152604080832080546001818101835591855292842090920180549587166001600160a01b03199687168117909155825480840184559284527fb10e2d527612073b26eecdfd717e6a320cf44b4afac2b0732d9fcbe2b7fa0cf69092018054909516841790945592517f0a63eceebca417c8030ff1c50ef47b484613b8223b02c40f85877f6b635786659190a35050565b606060005b600154811015610294576000600182815481106101925761019261035e565b6000918252602091829020015460408051638da5cb5b60e01b815290516001600160a01b03909216935033928492638da5cb5b9260048082019392918290030181865afa1580156101e7573d6000803e3d6000fd5b505050506040513d601f19601f8201168201806040525081019061020b9190610374565b6001600160a01b03160361028b576001600160a01b038116600090815260208181526040918290208054835181840281018401909452808452909183018282801561027f57602002820191906000526020600020905b81546001600160a01b03168152600190910190602001808311610261575b50505050509250505090565b50600101610173565b505060408051600081526020810190915290565b6000602082840312156102ba57600080fd5b5035919050565b6001600160a01b03811681146102d657600080fd5b50565b600080604083850312156102ec57600080fd5b82356102f7816102c1565b91506020830135610307816102c1565b809150509250929050565b602080825282518282018190526000918401906040840190835b818110156103535783516001600160a01b031683526020938401939092019160010161032c565b509095945050505050565b634e487b7160e01b600052603260045260246000fd5b60006020828403121561038657600080fd5b8151610391816102c1565b939250505056fea2646970667358221220f3d76c2d08f2f8b61d27d0f49e416d7a6b0e4a8b9c20d7e200b39a72945d813564736f6c634300081c0033",
  "linkReferences": {},
  "deployedLinkReferences": {}
}