{
  "_format": "hh-sol-artifact-1",
  "contractName": "ParticipationManager",
  "sourceName": "contracts/ParticipationManager.sol",
  "abi": [
    {
      "inputs": [
        {
          "internalType": "address[]",
          "name": "_organizations",
          "type": "address[]"
        }
      ],
      "stateMutability": "nonpayable",
      "type": "constructor"
    },
    {
      "inputs": [],
      "name": "GetIsReady",
      "outputs": [
        {
          "internalType": "bool",
          "name": "",
          "type": "bool"
        }
      ],
      "stateMutability": "view",
      "type": "function"
    },
    {
      "inputs": [],
      "name": "GetOrganizations",
      "outputs": [
        {
          "internalType": "address[]",
          "name": "",
          "type": "address[]"
        }
      ],
      "stateMutability": "view",
      "type": "function"
    },
    {
      "inputs": [
        {
          "internalType": "address",
          "name": "orgAddress",
          "type": "address"
        }
      ],
      "name": "acceptParticipation",
      "outputs": [],
      "stateMutability": "nonpayable",
      "type": "function"
    },
    {
      "inputs": [
        {
          "internalType": "address",
          "name": "",
          "type": "address"
        }
      ],
      "name": "accepted",
      "outputs": [
        {
          "internalType": "bool",
          "name": "",
          "type": "bool"
        }
      ],
      "stateMutability": "view",
      "type": "function"
    }
  ],
  "bytecode": "0x608060405234801561001057600080fd5b5060405161055e38038061055e83398101604081905261002f91610154565b80516100429060009060208401906100a8565b5060005b81518110156100a15760006001600084848151811061006757610067610223565b6020908102919091018101516001600160a01b03168252810191909152604001600020805460ff1916911515919091179055600101610046565b5050610239565b8280548282559060005260206000209081019282156100fd579160200282015b828111156100fd57825182546001600160a01b0319166001600160a01b039091161782556020909201916001909101906100c8565b5061010992915061010d565b5090565b5b80821115610109576000815560010161010e565b634e487b7160e01b600052604160045260246000fd5b80516001600160a01b038116811461014f57600080fd5b919050565b60006020828403121561016657600080fd5b81516001600160401b0381111561017c57600080fd5b8201601f8101841361018d57600080fd5b80516001600160401b038111156101a6576101a6610122565b604051600582901b90603f8201601f191681016001600160401b03811182821017156101d4576101d4610122565b6040529182526020818401810192908101878411156101f257600080fd5b6020850194505b838510156102185761020a85610138565b8152602094850194016101f9565b509695505050505050565b634e487b7160e01b600052603260045260246000fd5b610316806102486000396000f3fe608060405234801561001057600080fd5b506004361061004c5760003560e01c80632b34af70146100515780635698e40e146100895780636e0cb86f1461009e5780637ee0d0fd146100a6575b600080fd5b61007461005f36600461024e565b60016020526000908152604090205460ff1681565b60405190151581526020015b60405180910390f35b61009c61009736600461024e565b6100bb565b005b610074610184565b6100ae6101ec565b604051610080919061027e565b6000805b60005481101561011157826001600160a01b0316600082815481106100e6576100e66102ca565b6000918252602090912001546001600160a01b0316036101095760019150610111565b6001016100bf565b508061015c5760405162461bcd60e51b815260206004820152601660248201527513dc99d85b9a5e985d1a5bdb881b9bdd08199bdd5b9960521b604482015260640160405180910390fd5b506001600160a01b03166000908152600160208190526040909120805460ff19169091179055565b6000805b6000548110156101e457600160008083815481106101a8576101a86102ca565b60009182526020808320909101546001600160a01b0316835282019290925260400190205460ff166101dc57600091505090565b600101610188565b506001905090565b6060600080548060200260200160405190810160405280929190818152602001828054801561024457602002820191906000526020600020905b81546001600160a01b03168152600190910190602001808311610226575b5050505050905090565b60006020828403121561026057600080fd5b81356001600160a01b038116811461027757600080fd5b9392505050565b602080825282518282018190526000918401906040840190835b818110156102bf5783516001600160a01b0316835260209384019390920191600101610298565b509095945050505050565b634e487b7160e01b600052603260045260246000fdfea2646970667358221220d67bf7936a0c6ee6c20a3c8c574a288483a7145d71d0228a570d76b04382155864736f6c634300081c0033",
  "linkReferences": {},
  "deployedLinkReferences": {}
}