{
  "_format": "hh-sol-artifact-1",
  "contractName": "PATOFactory",
  "sourceName": "contracts/Product.sol",
  "abi": [
    {
      "inputs": [
        {
          "internalType": "address",
          "name": "_productAddr",
          "type": "address"
        },
        {
          "internalType": "address",
          "name": "_orgAddr",
          "type": "address"
        },
        {
          "internalType": "address",
          "name": "_manager",
          "type": "address"
        }
      ],
      "name": "deploy",
      "outputs": [
        {
          "internalType": "address",
          "name": "",
          "type": "address"
        }
      ],
      "stateMutability": "nonpayable",
      "type": "function"
    }
  ],
  "bytecode": "0x6080604052348015600f57600080fd5b50610ae98061001f6000396000f3fe608060405234801561001057600080fd5b506004361061002b5760003560e01c8063d9181cd314610030575b600080fd5b61004361003e3660046100de565b61005f565b6040516001600160a01b03909116815260200160405180910390f35b6000838383604051610070906100b5565b6001600160a01b03938416815291831660208301529091166040820152606001604051809103906000f0801580156100ac573d6000803e3d6000fd5b50949350505050565b6109928061012283390190565b80356001600160a01b03811681146100d957600080fd5b919050565b6000806000606084860312156100f357600080fd5b6100fc846100c2565b925061010a602085016100c2565b9150610118604085016100c2565b9050925092509256fe608060405234801561001057600080fd5b5060405161099238038061099283398101604081905261002f916100ab565b600380546001600160a01b039283166001600160a01b0319918216179091556040805180820190915292821680845293909116602090920182905260018054821690931790925560028054831682179055600480549092161790556100ee565b80516001600160a01b03811681146100a657600080fd5b919050565b6000806000606084860312156100c057600080fd5b6100c98461008f565b92506100d76020850161008f565b91506100e56040850161008f565b90509250925092565b610895806100fd6000396000f3fe608060405234801561001057600080fd5b50600436106100575760003560e01c8063481c6a751461005c5780634f3900b01461008c5780635a9b0b89146100a1578063a4c8b6e3146100ed578063ab8c71c01461010d575b600080fd5b60035461006f906001600160a01b031681565b6040516001600160a01b0390911681526020015b60405180910390f35b61009f61009a366004610545565b610120565b005b6040805180820182526000808252602091820152815180830183526001546001600160a01b03908116808352600254821692840192835284519081529151169181019190915201610083565b6101006100fb3660046105d9565b6101b0565b604051610083919061064f565b60045461006f906001600160a01b031681565b604080516060810182528281526020810185905290810183905260008054600181018255908052815182916003027f290decd9548b62a8d60345a988386fc84ba6bc95484008f6362f93160ef3e5630190819061017d908261077e565b5060208201516001820190610192908261077e565b50604082015160028201906101a7908261077e565b50505050505050565b6004805460015460405163cde6804160e01b81526001600160a01b038581169482019490945290831660248201526060929091169063cde6804190604401602060405180830381865afa15801561020b573d6000803e3d6000fd5b505050506040513d601f19601f8201168201806040525081019061022f919061083d565b61028b5760405162461bcd60e51b8152602060048201526024808201527f4163636573732064656e6965643a2063616c6c6572206e6f7420617574686f726044820152631a5e995960e21b606482015260840160405180910390fd5b6000805480602002602001604051908101604052809291908181526020016000905b8282101561049557838290600052602060002090600302016040518060600160405290816000820180546102e0906106f5565b80601f016020809104026020016040519081016040528092919081815260200182805461030c906106f5565b80156103595780601f1061032e57610100808354040283529160200191610359565b820191906000526020600020905b81548152906001019060200180831161033c57829003601f168201915b50505050508152602001600182018054610372906106f5565b80601f016020809104026020016040519081016040528092919081815260200182805461039e906106f5565b80156103eb5780601f106103c0576101008083540402835291602001916103eb565b820191906000526020600020905b8154815290600101906020018083116103ce57829003601f168201915b50505050508152602001600282018054610404906106f5565b80601f0160208091040260200160405190810160405280929190818152602001828054610430906106f5565b801561047d5780601f106104525761010080835404028352916020019161047d565b820191906000526020600020905b81548152906001019060200180831161046057829003601f168201915b505050505081525050815260200190600101906102ad565b505050509050919050565b634e487b7160e01b600052604160045260246000fd5b600082601f8301126104c757600080fd5b813567ffffffffffffffff8111156104e1576104e16104a0565b604051601f8201601f19908116603f0116810167ffffffffffffffff81118282101715610510576105106104a0565b60405281815283820160200185101561052857600080fd5b816020850160208301376000918101602001919091529392505050565b60008060006060848603121561055a57600080fd5b833567ffffffffffffffff81111561057157600080fd5b61057d868287016104b6565b935050602084013567ffffffffffffffff81111561059a57600080fd5b6105a6868287016104b6565b925050604084013567ffffffffffffffff8111156105c357600080fd5b6105cf868287016104b6565b9150509250925092565b6000602082840312156105eb57600080fd5b81356001600160a01b038116811461060257600080fd5b9392505050565b6000815180845260005b8181101561062f57602081850181015186830182015201610613565b506000602082860101526020601f19601f83011685010191505092915050565b6000602082016020835280845180835260408501915060408160051b86010192506020860160005b828110156106e957603f19878603018452815180516060875261069d6060880182610609565b9050602082015187820360208901526106b68282610609565b9150506040820151915086810360408801526106d28183610609565b965050506020938401939190910190600101610677565b50929695505050505050565b600181811c9082168061070957607f821691505b60208210810361072957634e487b7160e01b600052602260045260246000fd5b50919050565b601f82111561077957806000526020600020601f840160051c810160208510156107565750805b601f840160051c820191505b818110156107765760008155600101610762565b50505b505050565b815167ffffffffffffffff811115610798576107986104a0565b6107ac816107a684546106f5565b8461072f565b6020601f8211600181146107e057600083156107c85750848201515b600019600385901b1c1916600184901b178455610776565b600084815260208120601f198516915b8281101561081057878501518255602094850194600190920191016107f0565b508482101561082e5786840151600019600387901b60f8161c191681555b50505050600190811b01905550565b60006020828403121561084f57600080fd5b8151801515811461060257600080fdfea264697066735822122074ee546e987245068946c8c1bed16216d477526984cb7ead0c02343a13011f6064736f6c634300081c0033a2646970667358221220397f8540d624287f73e841b6609e6897276c62a0881a2fb7a0888760d58c8cb864736f6c634300081c0033",
  "linkReferences": {},
  "deployedLinkReferences": {}
}