{
  "_format": "hh-sol-artifact-1",
  "contractName": "Product",
  "sourceName": "contracts/Product.sol",
  "abi": [
    {
      "inputs": [
        {
          "internalType": "string",
          "name": "_productName",
          "type": "string"
        },
        {
          "internalType": "string",
          "name": "_productId",
          "type": "string"
        },
        {
          "internalType": "address",
          "name": "_organizationAddress",
          "type": "address"
        },
        {
          "internalType": "address[]",
          "name": "_participatingOrganizations",
          "type": "address[]"
        }
      ],
      "stateMutability": "nonpayable",
      "type": "constructor"
    },
    {
      "anonymous": false,
      "inputs": [
        {
          "indexed": true,
          "internalType": "address",
          "name": "org1",
          "type": "address"
        },
        {
          "indexed": true,
          "internalType": "address",
          "name": "org2",
          "type": "address"
        },
        {
          "indexed": false,
          "internalType": "int256",
          "name": "permission",
          "type": "int256"
        }
      ],
      "name": "PermissionChanged",
      "type": "event"
    },
    {
      "anonymous": false,
      "inputs": [
        {
          "indexed": true,
          "internalType": "address",
          "name": "productAddress",
          "type": "address"
        }
      ],
      "name": "ProductCreated",
      "type": "event"
    },
    {
      "anonymous": false,
      "inputs": [
        {
          "indexed": true,
          "internalType": "address",
          "name": "from",
          "type": "address"
        },
        {
          "indexed": true,
          "internalType": "address",
          "name": "to",
          "type": "address"
        },
        {
          "indexed": false,
          "internalType": "address",
          "name": "organization",
          "type": "address"
        },
        {
          "indexed": false,
          "internalType": "uint256",
          "name": "timestamp",
          "type": "uint256"
        }
      ],
      "name": "ProductTransferred",
      "type": "event"
    },
    {
      "inputs": [
        {
          "internalType": "address",
          "name": "orgAddress",
          "type": "address"
        }
      ],
      "name": "approveOwnershipTransfer",
      "outputs": [],
      "stateMutability": "nonpayable",
      "type": "function"
    },
    {
      "inputs": [
        {
          "internalType": "address",
          "name": "organizationAddr",
          "type": "address"
        }
      ],
      "name": "getAllMyPermissedOrgs",
      "outputs": [
        {
          "internalType": "address[]",
          "name": "",
          "type": "address[]"
        }
      ],
      "stateMutability": "view",
      "type": "function"
    },
    {
      "inputs": [],
      "name": "getId",
      "outputs": [
        {
          "internalType": "string",
          "name": "",
          "type": "string"
        }
      ],
      "stateMutability": "view",
      "type": "function"
    },
    {
      "inputs": [],
      "name": "getName",
      "outputs": [
        {
          "internalType": "string",
          "name": "",
          "type": "string"
        }
      ],
      "stateMutability": "view",
      "type": "function"
    },
    {
      "inputs": [],
      "name": "getOwnershipHistory",
      "outputs": [
        {
          "components": [
            {
              "internalType": "address",
              "name": "manager",
              "type": "address"
            },
            {
              "internalType": "uint256",
              "name": "startTime",
              "type": "uint256"
            }
          ],
          "internalType": "struct Product.Ownership[]",
          "name": "",
          "type": "tuple[]"
        }
      ],
      "stateMutability": "view",
      "type": "function"
    },
    {
      "inputs": [
        {
          "internalType": "address",
          "name": "_organizationAddress",
          "type": "address"
        }
      ],
      "name": "getProductAtOrganization",
      "outputs": [
        {
          "internalType": "address",
          "name": "",
          "type": "address"
        }
      ],
      "stateMutability": "view",
      "type": "function"
    },
    {
      "inputs": [
        {
          "internalType": "address",
          "name": "org1",
          "type": "address"
        },
        {
          "internalType": "address",
          "name": "org2",
          "type": "address"
        }
      ],
      "name": "hasPermission",
      "outputs": [
        {
          "internalType": "bool",
          "name": "",
          "type": "bool"
        }
      ],
      "stateMutability": "view",
      "type": "function"
    },
    {
      "inputs": [],
      "name": "manager",
      "outputs": [
        {
          "internalType": "address",
          "name": "",
          "type": "address"
        }
      ],
      "stateMutability": "view",
      "type": "function"
    },
    {
      "inputs": [
        {
          "internalType": "uint256",
          "name": "",
          "type": "uint256"
        }
      ],
      "name": "orgAddresses",
      "outputs": [
        {
          "internalType": "address",
          "name": "",
          "type": "address"
        }
      ],
      "stateMutability": "view",
      "type": "function"
    },
    {
      "inputs": [
        {
          "internalType": "address",
          "name": "",
          "type": "address"
        }
      ],
      "name": "organizationToProductAtOrganization",
      "outputs": [
        {
          "internalType": "address",
          "name": "",
          "type": "address"
        }
      ],
      "stateMutability": "view",
      "type": "function"
    },
    {
      "inputs": [
        {
          "internalType": "uint256",
          "name": "",
          "type": "uint256"
        }
      ],
      "name": "ownershipHistory",
      "outputs": [
        {
          "internalType": "address",
          "name": "manager",
          "type": "address"
        },
        {
          "internalType": "uint256",
          "name": "startTime",
          "type": "uint256"
        }
      ],
      "stateMutability": "view",
      "type": "function"
    },
    {
      "inputs": [],
      "name": "pendingManager",
      "outputs": [
        {
          "internalType": "address",
          "name": "",
          "type": "address"
        }
      ],
      "stateMutability": "view",
      "type": "function"
    },
    {
      "inputs": [
        {
          "internalType": "address",
          "name": "",
          "type": "address"
        },
        {
          "internalType": "address",
          "name": "",
          "type": "address"
        }
      ],
      "name": "permissionsMatrix",
      "outputs": [
        {
          "internalType": "int256",
          "name": "",
          "type": "int256"
        }
      ],
      "stateMutability": "view",
      "type": "function"
    },
    {
      "inputs": [
        {
          "internalType": "address",
          "name": "newManager",
          "type": "address"
        }
      ],
      "name": "requestOwnershipTransfer",
      "outputs": [],
      "stateMutability": "nonpayable",
      "type": "function"
    },
    {
      "inputs": [
        {
          "internalType": "address",
          "name": "org1",
          "type": "address"
        },
        {
          "internalType": "address",
          "name": "org2",
          "type": "address"
        },
        {
          "internalType": "int256",
          "name": "permission",
          "type": "int256"
        }
      ],
      "name": "setPermission",
      "outputs": [],
      "stateMutability": "nonpayable",
      "type": "function"
    }
  ],
  "bytecode": "0x608060405234801561001057600080fd5b50604051611ea8380380611ea883398101604081905261002f9161041f565b805181906100449060009060208401906102b1565b5060005b81518110156100e55760005b82518110156100dc5760018060008585815181106100745761007461053a565b60200260200101516001600160a01b03166001600160a01b0316815260200190815260200160002060008584815181106100b0576100b061053a565b6020908102919091018101516001600160a01b0316825281019190915260400160002055600101610054565b50600101610048565b5050604080518082019091528481526020810184905260028061010887826105d9565b506020820151600182019061011d90826105d9565b505060058054326001600160a01b0319918216811790925560408051808201825292835242602084019081526007805460018101825560009190915293517fa66cc928b5edb82af9bd49922954155ab7b0942694bea4ce44661d9a8736c688600290950294850180549094166001600160a01b039091161790925590517fa66cc928b5edb82af9bd49922954155ab7b0942694bea4ce44661d9a8736c68990920191909155516101cd9150610316565b604051809103906000f0801580156101e9573d6000803e3d6000fd5b50600880546001600160a01b0319166001600160a01b0392831690811790915560055460405163d9181cd360e01b81523060048201528584166024820152921660448301529063d9181cd3906064016020604051808303816000875af1158015610257573d6000803e3d6000fd5b505050506040513d601f19601f8201168201806040525081019061027b9190610697565b6001600160a01b03928316600090815260046020526040902080546001600160a01b0319169190931617909155506106b9915050565b828054828255906000526020600020908101928215610306579160200282015b8281111561030657825182546001600160a01b0319166001600160a01b039091161782556020909201916001909101906102d1565b50610312929150610323565b5090565b610ad3806113d583390190565b5b808211156103125760008155600101610324565b634e487b7160e01b600052604160045260246000fd5b604051601f8201601f191681016001600160401b038111828210171561037657610376610338565b604052919050565b600082601f83011261038f57600080fd5b81516001600160401b038111156103a8576103a8610338565b6103bb601f8201601f191660200161034e565b8181528460208386010111156103d057600080fd5b60005b828110156103ef576020818601810151838301820152016103d3565b506000918101602001919091529392505050565b80516001600160a01b038116811461041a57600080fd5b919050565b6000806000806080858703121561043557600080fd5b84516001600160401b0381111561044b57600080fd5b6104578782880161037e565b602087015190955090506001600160401b0381111561047557600080fd5b6104818782880161037e565b93505061049060408601610403565b60608601519092506001600160401b038111156104ac57600080fd5b8501601f810187136104bd57600080fd5b80516001600160401b038111156104d6576104d6610338565b8060051b6104e66020820161034e565b9182526020818401810192908101908a84111561050257600080fd5b6020850194505b8385101561052b5761051a85610403565b825260209485019490910190610509565b979a9699509497505050505050565b634e487b7160e01b600052603260045260246000fd5b600181811c9082168061056457607f821691505b60208210810361058457634e487b7160e01b600052602260045260246000fd5b50919050565b601f8211156105d457806000526020600020601f840160051c810160208510156105b15750805b601f840160051c820191505b818110156105d157600081556001016105bd565b50505b505050565b81516001600160401b038111156105f2576105f2610338565b610606816106008454610550565b8461058a565b6020601f82116001811461063a57600083156106225750848201515b600019600385901b1c1916600184901b1784556105d1565b600084815260208120601f198516915b8281101561066a578785015182556020948501946001909201910161064a565b50848210156106885786840151600019600387901b60f8161c191681555b50505050600190811b01905550565b6000602082840312156106a957600080fd5b6106b282610403565b9392505050565b610d0d806106c86000396000f3fe608060405234801561001057600080fd5b50600436106100f55760003560e01c80635d1ca63111610097578063cde6804111610066578063cde6804114610213578063e791221e14610260578063f28ad72514610299578063fc83cd82146102c257600080fd5b80635d1ca631146101c35780636f4cf183146101cb5780639a1a764c146101e0578063a00fff6f1461020057600080fd5b806321d0326f116100d357806321d0326f1461015f5780633ab0ae611461018a578063481c6a751461019d5780634e1d009f146101b057600080fd5b80630952c504146100fa57806317d7de7c1461010f57806319159f201461012d575b600080fd5b61010d610108366004610a8f565b6102d5565b005b6101176103cc565b6040516101249190610ab3565b60405180910390f35b61014061013b366004610b01565b610461565b604080516001600160a01b039093168352602083019190915201610124565b61017261016d366004610b01565b610499565b6040516001600160a01b039091168152602001610124565b610172610198366004610a8f565b6104c3565b600554610172906001600160a01b031681565b61010d6101be366004610a8f565b61055b565b6101176106df565b6101d36106f1565b6040516101249190610b1a565b6101f36101ee366004610a8f565b610766565b6040516101249190610b72565b600654610172906001600160a01b031681565b610250610221366004610bb3565b6001600160a01b0380831660009081526001602081815260408084209486168452939052919020541492915050565b6040519015158152602001610124565b61028b61026e366004610bb3565b600160209081526000928352604080842090915290825290205481565b604051908152602001610124565b6101726102a7366004610a8f565b6004602052600090815260409020546001600160a01b031681565b61010d6102d0366004610bec565b61090f565b6005546001600160a01b031633146103455760405162461bcd60e51b815260206004820152602860248201527f4f6e6c7920746865206d616e616765722063616e20706572666f726d20746869604482015267399030b1ba34b7b760c11b60648201526084015b60405180910390fd5b6001600160a01b0381166103aa5760405162461bcd60e51b815260206004820152602660248201527f4e6577206d616e616765722063616e6e6f7420626520746865207a65726f206160448201526564647265737360d01b606482015260840161033c565b600680546001600160a01b0319166001600160a01b0392909216919091179055565b6060600260000180546103de90610c2d565b80601f016020809104026020016040519081016040528092919081815260200182805461040a90610c2d565b80156104575780601f1061042c57610100808354040283529160200191610457565b820191906000526020600020905b81548152906001019060200180831161043a57829003601f168201915b5050505050905090565b6007818154811061047157600080fd5b6000918252602090912060029091020180546001909101546001600160a01b03909116915082565b600081815481106104a957600080fd5b6000918252602090912001546001600160a01b0316905081565b6001600160a01b0381811660009081526004602052604081205490911661053c5760405162461bcd60e51b815260206004820152602760248201527f50726f64756374206e6f7420666f756e6420666f722074686973206f7267616e60448201526634bd30ba34b7b760c91b606482015260840161033c565b506001600160a01b039081166000908152600460205260409020541690565b6006546001600160a01b031633146105cf5760405162461bcd60e51b815260206004820152603160248201527f4f6e6c79207468652070656e64696e67206d616e616765722063616e206170706044820152703937bb32903a3432903a3930b739b332b960791b606482015260840161033c565b60058054600680546001600160a01b038082166001600160a01b0319808616821787559283169093556040805180820182529384524260208086018281526007805460018101825560009190915296517fa66cc928b5edb82af9bd49922954155ab7b0942694bea4ce44661d9a8736c688600290980297880180549097169086161790955593517fa66cc928b5edb82af9bd49922954155ab7b0942694bea4ce44661d9a8736c689909501949094559454855187831681529283019390935292831693919092169183917f12ff9ac9c8bb471da2cca3c23cb1bed37b11e9b0f3e609d54d477a7ce0557282910160405180910390a36005546106db9083906001600160a01b03166109c9565b5050565b6060600260010180546103de90610c2d565b60606007805480602002602001604051908101604052809291908181526020016000905b8282101561075d576000848152602090819020604080518082019091526002850290910180546001600160a01b03168252600190810154828401529083529092019101610715565b50505050905090565b60606000805b6000548110156107e5576001600160a01b0384166000908152600160205260408120815482908190859081106107a4576107a4610c67565b60009182526020808320909101546001600160a01b0316835282019290925260400190205413156107dd57816107d981610c7d565b9250505b60010161076c565b5060008167ffffffffffffffff81111561080157610801610ca4565b60405190808252806020026020018201604052801561082a578160200160208202803683370190505b5090506000805b600054811015610905576001600160a01b03861660009081526001602052604081208154829081908590811061086957610869610c67565b60009182526020808320909101546001600160a01b0316835282019290925260400190205413156108fd57600081815481106108a7576108a7610c67565b9060005260206000200160009054906101000a90046001600160a01b03168383815181106108d7576108d7610c67565b6001600160a01b0390921660209283029190910190910152816108f981610c7d565b9250505b600101610831565b5090949350505050565b80158061091c5750806001145b6109685760405162461bcd60e51b815260206004820152601a60248201527f5065726d697373696f6e206d7573742062652030206f7220312e000000000000604482015260640161033c565b6001600160a01b0383811660008181526001602090815260408083209487168084529482529182902085905590518481527f6a442bd8106d9e09bc459120a0e45bb653c8ea137a72cdcf28d37f97ebe65021910160405180910390a3505050565b60085460405163d9181cd360e01b81523060048201526001600160a01b03848116602483015283811660448301529091169063d9181cd3906064016020604051808303816000875af1158015610a23573d6000803e3d6000fd5b505050506040513d601f19601f82011682018060405250810190610a479190610cba565b6001600160a01b03928316600090815260046020526040902080546001600160a01b031916919093161790915550565b6001600160a01b0381168114610a8c57600080fd5b50565b600060208284031215610aa157600080fd5b8135610aac81610a77565b9392505050565b602081526000825180602084015260005b81811015610ae15760208186018101516040868401015201610ac4565b506000604082850101526040601f19601f83011684010191505092915050565b600060208284031215610b1357600080fd5b5035919050565b602080825282518282018190526000918401906040840190835b81811015610b6757835180516001600160a01b031684526020908101518185015290930192604090920191600101610b34565b509095945050505050565b602080825282518282018190526000918401906040840190835b81811015610b675783516001600160a01b0316835260209384019390920191600101610b8c565b60008060408385031215610bc657600080fd5b8235610bd181610a77565b91506020830135610be181610a77565b809150509250929050565b600080600060608486031215610c0157600080fd5b8335610c0c81610a77565b92506020840135610c1c81610a77565b929592945050506040919091013590565b600181811c90821680610c4157607f821691505b602082108103610c6157634e487b7160e01b600052602260045260246000fd5b50919050565b634e487b7160e01b600052603260045260246000fd5b600060018201610c9d57634e487b7160e01b600052601160045260246000fd5b5060010190565b634e487b7160e01b600052604160045260246000fd5b600060208284031215610ccc57600080fd5b8151610aac81610a7756fea2646970667358221220dd379cd403020cc619ffa8cc1325c0a80b32e1b2acd9e954f5d20451df930c6564736f6c634300081c00336080604052348015600f57600080fd5b50610ab48061001f6000396000f3fe608060405234801561001057600080fd5b506004361061002b5760003560e01c8063d9181cd314610030575b600080fd5b61004361003e3660046100de565b61005f565b6040516001600160a01b03909116815260200160405180910390f35b6000838383604051610070906100b5565b6001600160a01b03938416815291831660208301529091166040820152606001604051809103906000f0801580156100ac573d6000803e3d6000fd5b50949350505050565b61095d8061012283390190565b80356001600160a01b03811681146100d957600080fd5b919050565b6000806000606084860312156100f357600080fd5b6100fc846100c2565b925061010a602085016100c2565b9150610118604085016100c2565b9050925092509256fe608060405234801561001057600080fd5b5060405161095d38038061095d83398101604081905261002f916100ab565b600380546001600160a01b039283166001600160a01b0319918216179091556040805180820190915292821680845293909116602090920182905260018054821690931790925560028054831682179055600480549092161790556100ee565b80516001600160a01b03811681146100a657600080fd5b919050565b6000806000606084860312156100c057600080fd5b6100c98461008f565b92506100d76020850161008f565b91506100e56040850161008f565b90509250925092565b610860806100fd6000396000f3fe608060405234801561001057600080fd5b50600436106100575760003560e01c8063404aa8f91461005c578063481c6a751461007a5780634f3900b0146100a55780635a9b0b89146100ba578063ab8c71c014610106575b600080fd5b610064610119565b60405161007191906104da565b60405180910390f35b60035461008d906001600160a01b031681565b6040516001600160a01b039091168152602001610071565b6100b86100b3366004610625565b610404565b005b6040805180820182526000808252602091820152815180830183526001546001600160a01b03908116808352600254821692840192835284519081529151169181019190915201610071565b60045461008d906001600160a01b031681565b6004805460015460405163cde6804160e01b815233938101939093526001600160a01b03908116602484015260609291169063cde6804190604401602060405180830381865afa158015610171573d6000803e3d6000fd5b505050506040513d601f19601f8201168201806040525081019061019591906106b9565b6101f15760405162461bcd60e51b8152602060048201526024808201527f4163636573732064656e6965643a2063616c6c6572206e6f7420617574686f726044820152631a5e995960e21b606482015260840160405180910390fd5b6000805480602002602001604051908101604052809291908181526020016000905b828210156103fb5783829060005260206000209060030201604051806060016040529081600082018054610246906106e2565b80601f0160208091040260200160405190810160405280929190818152602001828054610272906106e2565b80156102bf5780601f10610294576101008083540402835291602001916102bf565b820191906000526020600020905b8154815290600101906020018083116102a257829003601f168201915b505050505081526020016001820180546102d8906106e2565b80601f0160208091040260200160405190810160405280929190818152602001828054610304906106e2565b80156103515780601f1061032657610100808354040283529160200191610351565b820191906000526020600020905b81548152906001019060200180831161033457829003601f168201915b5050505050815260200160028201805461036a906106e2565b80601f0160208091040260200160405190810160405280929190818152602001828054610396906106e2565b80156103e35780601f106103b8576101008083540402835291602001916103e3565b820191906000526020600020905b8154815290600101906020018083116103c657829003601f168201915b50505050508152505081526020019060010190610213565b50505050905090565b604080516060810182528281526020810185905290810183905260008054600181018255908052815182916003027f290decd9548b62a8d60345a988386fc84ba6bc95484008f6362f93160ef3e56301908190610461908261076b565b5060208201516001820190610476908261076b565b506040820151600282019061048b908261076b565b50505050505050565b6000815180845260005b818110156104ba5760208185018101518683018201520161049e565b506000602082860101526020601f19601f83011685010191505092915050565b6000602082016020835280845180835260408501915060408160051b86010192506020860160005b8281101561057457603f1987860301845281518051606087526105286060880182610494565b9050602082015187820360208901526105418282610494565b91505060408201519150868103604088015261055d8183610494565b965050506020938401939190910190600101610502565b50929695505050505050565b634e487b7160e01b600052604160045260246000fd5b600082601f8301126105a757600080fd5b813567ffffffffffffffff8111156105c1576105c1610580565b604051601f8201601f19908116603f0116810167ffffffffffffffff811182821017156105f0576105f0610580565b60405281815283820160200185101561060857600080fd5b816020850160208301376000918101602001919091529392505050565b60008060006060848603121561063a57600080fd5b833567ffffffffffffffff81111561065157600080fd5b61065d86828701610596565b935050602084013567ffffffffffffffff81111561067a57600080fd5b61068686828701610596565b925050604084013567ffffffffffffffff8111156106a357600080fd5b6106af86828701610596565b9150509250925092565b6000602082840312156106cb57600080fd5b815180151581146106db57600080fd5b9392505050565b600181811c908216806106f657607f821691505b60208210810361071657634e487b7160e01b600052602260045260246000fd5b50919050565b601f82111561076657806000526020600020601f840160051c810160208510156107435750805b601f840160051c820191505b81811015610763576000815560010161074f565b50505b505050565b815167ffffffffffffffff81111561078557610785610580565b6107998161079384546106e2565b8461071c565b6020601f8211600181146107cd57600083156107b55750848201515b600019600385901b1c1916600184901b178455610763565b600084815260208120601f198516915b828110156107fd57878501518255602094850194600190920191016107dd565b508482101561081b5786840151600019600387901b60f8161c191681555b50505050600190811b0190555056fea2646970667358221220dfc140b0d23d6bfbebef715667d23bc09246377130cee712f630d5587dc1c9d864736f6c634300081c0033a26469706673582212202520f8e74dacaacf946f47d89b65e72cc109b0863c12c3b91ddc2d7ae00dc0fb64736f6c634300081c0033",
  "linkReferences": {},
  "deployedLinkReferences": {}
}