{
  "_format": "hh-sol-artifact-1",
  "contractName": "Product",
  "sourceName": "contracts/Product.sol",
  "abi": [
    {
      "inputs": [
        {
          "internalType": "string",
          "name": "_productName",
          "type": "string"
        },
        {
          "internalType": "string",
          "name": "_productId",
          "type": "string"
        },
        {
          "internalType": "address",
          "name": "_organizationAddress",
          "type": "address"
        },
        {
          "internalType": "address[]",
          "name": "_participatingOrganizations",
          "type": "address[]"
        }
      ],
      "stateMutability": "nonpayable",
      "type": "constructor"
    },
    {
      "anonymous": false,
      "inputs": [
        {
          "indexed": true,
          "internalType": "address",
          "name": "org1",
          "type": "address"
        },
        {
          "indexed": true,
          "internalType": "address",
          "name": "org2",
          "type": "address"
        },
        {
          "indexed": false,
          "internalType": "int256",
          "name": "permission",
          "type": "int256"
        }
      ],
      "name": "PermissionChanged",
      "type": "event"
    },
    {
      "anonymous": false,
      "inputs": [
        {
          "indexed": true,
          "internalType": "address",
          "name": "productAddress",
          "type": "address"
        }
      ],
      "name": "ProductCreated",
      "type": "event"
    },
    {
      "anonymous": false,
      "inputs": [
        {
          "indexed": true,
          "internalType": "address",
          "name": "from",
          "type": "address"
        },
        {
          "indexed": true,
          "internalType": "address",
          "name": "to",
          "type": "address"
        },
        {
          "indexed": false,
          "internalType": "address",
          "name": "organization",
          "type": "address"
        },
        {
          "indexed": false,
          "internalType": "uint256",
          "name": "timestamp",
          "type": "uint256"
        }
      ],
      "name": "ProductTransferred",
      "type": "event"
    },
    {
      "inputs": [
        {
          "internalType": "address",
          "name": "orgAddress",
          "type": "address"
        }
      ],
      "name": "approveOwnershipTransfer",
      "outputs": [],
      "stateMutability": "nonpayable",
      "type": "function"
    },
    {
      "inputs": [
        {
          "internalType": "address",
          "name": "organizationAddr",
          "type": "address"
        }
      ],
      "name": "getAllMyPermissedOrgs",
      "outputs": [
        {
          "internalType": "address[]",
          "name": "",
          "type": "address[]"
        }
      ],
      "stateMutability": "view",
      "type": "function"
    },
    {
      "inputs": [],
      "name": "getId",
      "outputs": [
        {
          "internalType": "string",
          "name": "",
          "type": "string"
        }
      ],
      "stateMutability": "view",
      "type": "function"
    },
    {
      "inputs": [],
      "name": "getName",
      "outputs": [
        {
          "internalType": "string",
          "name": "",
          "type": "string"
        }
      ],
      "stateMutability": "view",
      "type": "function"
    },
    {
      "inputs": [],
      "name": "getOwnershipHistory",
      "outputs": [
        {
          "components": [
            {
              "internalType": "address",
              "name": "organization",
              "type": "address"
            },
            {
              "internalType": "address",
              "name": "manager",
              "type": "address"
            },
            {
              "internalType": "uint256",
              "name": "startTime",
              "type": "uint256"
            }
          ],
          "internalType": "struct Product.Ownership[]",
          "name": "",
          "type": "tuple[]"
        }
      ],
      "stateMutability": "view",
      "type": "function"
    },
    {
      "inputs": [
        {
          "internalType": "address",
          "name": "_organizationAddress",
          "type": "address"
        }
      ],
      "name": "getProductAtOrganization",
      "outputs": [
        {
          "internalType": "address",
          "name": "",
          "type": "address"
        }
      ],
      "stateMutability": "view",
      "type": "function"
    },
    {
      "inputs": [
        {
          "internalType": "address",
          "name": "org1",
          "type": "address"
        },
        {
          "internalType": "address",
          "name": "org2",
          "type": "address"
        }
      ],
      "name": "hasPermission",
      "outputs": [
        {
          "internalType": "bool",
          "name": "",
          "type": "bool"
        }
      ],
      "stateMutability": "view",
      "type": "function"
    },
    {
      "inputs": [],
      "name": "manager",
      "outputs": [
        {
          "internalType": "address",
          "name": "",
          "type": "address"
        }
      ],
      "stateMutability": "view",
      "type": "function"
    },
    {
      "inputs": [
        {
          "internalType": "uint256",
          "name": "",
          "type": "uint256"
        }
      ],
      "name": "orgAddresses",
      "outputs": [
        {
          "internalType": "address",
          "name": "",
          "type": "address"
        }
      ],
      "stateMutability": "view",
      "type": "function"
    },
    {
      "inputs": [
        {
          "internalType": "address",
          "name": "",
          "type": "address"
        }
      ],
      "name": "organizationToProductAtOrganization",
      "outputs": [
        {
          "internalType": "address",
          "name": "",
          "type": "address"
        }
      ],
      "stateMutability": "view",
      "type": "function"
    },
    {
      "inputs": [
        {
          "internalType": "uint256",
          "name": "",
          "type": "uint256"
        }
      ],
      "name": "ownershipHistory",
      "outputs": [
        {
          "internalType": "address",
          "name": "organization",
          "type": "address"
        },
        {
          "internalType": "address",
          "name": "manager",
          "type": "address"
        },
        {
          "internalType": "uint256",
          "name": "startTime",
          "type": "uint256"
        }
      ],
      "stateMutability": "view",
      "type": "function"
    },
    {
      "inputs": [],
      "name": "pendingManager",
      "outputs": [
        {
          "internalType": "address",
          "name": "",
          "type": "address"
        }
      ],
      "stateMutability": "view",
      "type": "function"
    },
    {
      "inputs": [
        {
          "internalType": "address",
          "name": "",
          "type": "address"
        },
        {
          "internalType": "address",
          "name": "",
          "type": "address"
        }
      ],
      "name": "permissionsMatrix",
      "outputs": [
        {
          "internalType": "int256",
          "name": "",
          "type": "int256"
        }
      ],
      "stateMutability": "view",
      "type": "function"
    },
    {
      "inputs": [
        {
          "internalType": "address",
          "name": "newManager",
          "type": "address"
        }
      ],
      "name": "requestOwnershipTransfer",
      "outputs": [],
      "stateMutability": "nonpayable",
      "type": "function"
    },
    {
      "inputs": [
        {
          "internalType": "address",
          "name": "org1",
          "type": "address"
        },
        {
          "internalType": "address",
          "name": "org2",
          "type": "address"
        },
        {
          "internalType": "int256",
          "name": "permission",
          "type": "int256"
        }
      ],
      "name": "setPermission",
      "outputs": [],
      "stateMutability": "nonpayable",
      "type": "function"
    }
  ],
  "bytecode": "0x608060405234801561001057600080fd5b50604051611f66380380611f6683398101604081905261002f91610456565b805181906100449060009060208401906102e8565b5060005b81518110156100e55760005b82518110156100dc57600180600085858151811061007457610074610571565b60200260200101516001600160a01b03166001600160a01b0316815260200190815260200160002060008584815181106100b0576100b0610571565b6020908102919091018101516001600160a01b0316825281019190915260400160002055600101610054565b50600101610048565b505060408051808201909152848152602081018490526002806101088782610610565b506020820151600182019061011d9082610610565b505060058054326001600160a01b03199182168117909255604080516060810182526001600160a01b03878116825260208201948552428284019081526007805460018101825560009190915292517fa66cc928b5edb82af9bd49922954155ab7b0942694bea4ce44661d9a8736c68860039094029384018054871691841691909117905594517fa66cc928b5edb82af9bd49922954155ab7b0942694bea4ce44661d9a8736c6898301805490951691161790925591517fa66cc928b5edb82af9bd49922954155ab7b0942694bea4ce44661d9a8736c68a9091015551610204915061034d565b604051809103906000f080158015610220573d6000803e3d6000fd5b50600880546001600160a01b0319166001600160a01b0392831690811790915560055460405163d9181cd360e01b81523060048201528584166024820152921660448301529063d9181cd3906064016020604051808303816000875af115801561028e573d6000803e3d6000fd5b505050506040513d601f19601f820116820180604052508101906102b291906106ce565b6001600160a01b03928316600090815260046020526040902080546001600160a01b0319169190931617909155506106f0915050565b82805482825590600052602060002090810192821561033d579160200282015b8281111561033d57825182546001600160a01b0319166001600160a01b03909116178255602090920191600190910190610308565b5061034992915061035a565b5090565b610b088061145e83390190565b5b80821115610349576000815560010161035b565b634e487b7160e01b600052604160045260246000fd5b604051601f8201601f191681016001600160401b03811182821017156103ad576103ad61036f565b604052919050565b600082601f8301126103c657600080fd5b81516001600160401b038111156103df576103df61036f565b6103f2601f8201601f1916602001610385565b81815284602083860101111561040757600080fd5b60005b828110156104265760208186018101518383018201520161040a565b506000918101602001919091529392505050565b80516001600160a01b038116811461045157600080fd5b919050565b6000806000806080858703121561046c57600080fd5b84516001600160401b0381111561048257600080fd5b61048e878288016103b5565b602087015190955090506001600160401b038111156104ac57600080fd5b6104b8878288016103b5565b9350506104c76040860161043a565b60608601519092506001600160401b038111156104e357600080fd5b8501601f810187136104f457600080fd5b80516001600160401b0381111561050d5761050d61036f565b8060051b61051d60208201610385565b9182526020818401810192908101908a84111561053957600080fd5b6020850194505b83851015610562576105518561043a565b825260209485019490910190610540565b979a9699509497505050505050565b634e487b7160e01b600052603260045260246000fd5b600181811c9082168061059b57607f821691505b6020821081036105bb57634e487b7160e01b600052602260045260246000fd5b50919050565b601f82111561060b57806000526020600020601f840160051c810160208510156105e85750805b601f840160051c820191505b8181101561060857600081556001016105f4565b50505b505050565b81516001600160401b038111156106295761062961036f565b61063d816106378454610587565b846105c1565b6020601f82116001811461067157600083156106595750848201515b600019600385901b1c1916600184901b178455610608565b600084815260208120601f198516915b828110156106a15787850151825560209485019460019092019101610681565b50848210156106bf5786840151600019600387901b60f8161c191681555b50505050600190811b01905550565b6000602082840312156106e057600080fd5b6106e98261043a565b9392505050565b610d5f806106ff6000396000f3fe608060405234801561001057600080fd5b50600436106100f55760003560e01c80635d1ca63111610097578063cde6804111610066578063cde680411461021a578063e791221e14610267578063f28ad725146102a0578063fc83cd82146102c957600080fd5b80635d1ca631146101ca5780636f4cf183146101d25780639a1a764c146101e7578063a00fff6f1461020757600080fd5b806321d0326f116100d357806321d0326f146101665780633ab0ae6114610191578063481c6a75146101a45780634e1d009f146101b757600080fd5b80630952c504146100fa57806317d7de7c1461010f57806319159f201461012d575b600080fd5b61010d610108366004610acf565b6102dc565b005b6101176103d3565b6040516101249190610af3565b60405180910390f35b61014061013b366004610b41565b610468565b604080516001600160a01b03948516815293909216602084015290820152606001610124565b610179610174366004610b41565b6104a8565b6040516001600160a01b039091168152602001610124565b61017961019f366004610acf565b6104d2565b600554610179906001600160a01b031681565b61010d6101c5366004610acf565b61056a565b61011761070d565b6101da61071f565b6040516101249190610b5a565b6101fa6101f5366004610acf565b6107a6565b6040516101249190610bc4565b600654610179906001600160a01b031681565b610257610228366004610c05565b6001600160a01b0380831660009081526001602081815260408084209486168452939052919020541492915050565b6040519015158152602001610124565b610292610275366004610c05565b600160209081526000928352604080842090915290825290205481565b604051908152602001610124565b6101796102ae366004610acf565b6004602052600090815260409020546001600160a01b031681565b61010d6102d7366004610c3e565b61094f565b6005546001600160a01b0316331461034c5760405162461bcd60e51b815260206004820152602860248201527f4f6e6c7920746865206d616e616765722063616e20706572666f726d20746869604482015267399030b1ba34b7b760c11b60648201526084015b60405180910390fd5b6001600160a01b0381166103b15760405162461bcd60e51b815260206004820152602660248201527f4e6577206d616e616765722063616e6e6f7420626520746865207a65726f206160448201526564647265737360d01b6064820152608401610343565b600680546001600160a01b0319166001600160a01b0392909216919091179055565b6060600260000180546103e590610c7f565b80601f016020809104026020016040519081016040528092919081815260200182805461041190610c7f565b801561045e5780601f106104335761010080835404028352916020019161045e565b820191906000526020600020905b81548152906001019060200180831161044157829003601f168201915b5050505050905090565b6007818154811061047857600080fd5b60009182526020909120600390910201805460018201546002909201546001600160a01b03918216935091169083565b600081815481106104b857600080fd5b6000918252602090912001546001600160a01b0316905081565b6001600160a01b0381811660009081526004602052604081205490911661054b5760405162461bcd60e51b815260206004820152602760248201527f50726f64756374206e6f7420666f756e6420666f722074686973206f7267616e60448201526634bd30ba34b7b760c91b6064820152608401610343565b506001600160a01b039081166000908152600460205260409020541690565b6006546001600160a01b031633146105de5760405162461bcd60e51b815260206004820152603160248201527f4f6e6c79207468652070656e64696e67206d616e616765722063616e206170706044820152703937bb32903a3432903a3930b739b332b960791b6064820152608401610343565b60058054600680546001600160a01b03198084166001600160a01b038381169190911790955516905560408051606081019091526007805493909216928190839060009061062e5761062e610cb9565b60009182526020808320600392830201546001600160a01b03908116855260058054821686840152426040968701819052885460018082018b559987529584902088519690950290940180549583166001600160a01b031996871617815587840151988101805499841699909616989098179094559484015160029096019590955590548251878516815294850191909152821692918416917f12ff9ac9c8bb471da2cca3c23cb1bed37b11e9b0f3e609d54d477a7ce0557282910160405180910390a36005546107099083906001600160a01b0316610a09565b5050565b6060600260010180546103e590610c7f565b60606007805480602002602001604051908101604052809291908181526020016000905b8282101561079d576000848152602090819020604080516060810182526003860290920180546001600160a01b03908116845260018083015490911684860152600290910154918301919091529083529092019101610743565b50505050905090565b60606000805b600054811015610825576001600160a01b0384166000908152600160205260408120815482908190859081106107e4576107e4610cb9565b60009182526020808320909101546001600160a01b03168352820192909252604001902054131561081d578161081981610ccf565b9250505b6001016107ac565b5060008167ffffffffffffffff81111561084157610841610cf6565b60405190808252806020026020018201604052801561086a578160200160208202803683370190505b5090506000805b600054811015610945576001600160a01b0386166000908152600160205260408120815482908190859081106108a9576108a9610cb9565b60009182526020808320909101546001600160a01b03168352820192909252604001902054131561093d57600081815481106108e7576108e7610cb9565b9060005260206000200160009054906101000a90046001600160a01b031683838151811061091757610917610cb9565b6001600160a01b03909216602092830291909101909101528161093981610ccf565b9250505b600101610871565b5090949350505050565b80158061095c5750806001145b6109a85760405162461bcd60e51b815260206004820152601a60248201527f5065726d697373696f6e206d7573742062652030206f7220312e0000000000006044820152606401610343565b6001600160a01b0383811660008181526001602090815260408083209487168084529482529182902085905590518481527f6a442bd8106d9e09bc459120a0e45bb653c8ea137a72cdcf28d37f97ebe65021910160405180910390a3505050565b60085460405163d9181cd360e01b81523060048201526001600160a01b03848116602483015283811660448301529091169063d9181cd3906064016020604051808303816000875af1158015610a63573d6000803e3d6000fd5b505050506040513d601f19601f82011682018060405250810190610a879190610d0c565b6001600160a01b03928316600090815260046020526040902080546001600160a01b031916919093161790915550565b6001600160a01b0381168114610acc57600080fd5b50565b600060208284031215610ae157600080fd5b8135610aec81610ab7565b9392505050565b602081526000825180602084015260005b81811015610b215760208186018101516040868401015201610b04565b506000604082850101526040601f19601f83011684010191505092915050565b600060208284031215610b5357600080fd5b5035919050565b602080825282518282018190526000918401906040840190835b81811015610bb957835180516001600160a01b039081168552602080830151909116818601526040918201519185019190915290930192606090920191600101610b74565b509095945050505050565b602080825282518282018190526000918401906040840190835b81811015610bb95783516001600160a01b0316835260209384019390920191600101610bde565b60008060408385031215610c1857600080fd5b8235610c2381610ab7565b91506020830135610c3381610ab7565b809150509250929050565b600080600060608486031215610c5357600080fd5b8335610c5e81610ab7565b92506020840135610c6e81610ab7565b929592945050506040919091013590565b600181811c90821680610c9357607f821691505b602082108103610cb357634e487b7160e01b600052602260045260246000fd5b50919050565b634e487b7160e01b600052603260045260246000fd5b600060018201610cef57634e487b7160e01b600052601160045260246000fd5b5060010190565b634e487b7160e01b600052604160045260246000fd5b600060208284031215610d1e57600080fd5b8151610aec81610ab756fea264697066735822122061c1fa21b3799b6ee9b7cb93a582b5af13716bc4eb8de0016ba95e9a7cacc4b464736f6c634300081c00336080604052348015600f57600080fd5b50610ae98061001f6000396000f3fe608060405234801561001057600080fd5b506004361061002b5760003560e01c8063d9181cd314610030575b600080fd5b61004361003e3660046100de565b61005f565b6040516001600160a01b03909116815260200160405180910390f35b6000838383604051610070906100b5565b6001600160a01b03938416815291831660208301529091166040820152606001604051809103906000f0801580156100ac573d6000803e3d6000fd5b50949350505050565b6109928061012283390190565b80356001600160a01b03811681146100d957600080fd5b919050565b6000806000606084860312156100f357600080fd5b6100fc846100c2565b925061010a602085016100c2565b9150610118604085016100c2565b9050925092509256fe608060405234801561001057600080fd5b5060405161099238038061099283398101604081905261002f916100ab565b600380546001600160a01b039283166001600160a01b0319918216179091556040805180820190915292821680845293909116602090920182905260018054821690931790925560028054831682179055600480549092161790556100ee565b80516001600160a01b03811681146100a657600080fd5b919050565b6000806000606084860312156100c057600080fd5b6100c98461008f565b92506100d76020850161008f565b91506100e56040850161008f565b90509250925092565b610895806100fd6000396000f3fe608060405234801561001057600080fd5b50600436106100575760003560e01c8063481c6a751461005c5780634f3900b01461008c5780635a9b0b89146100a1578063a4c8b6e3146100ed578063ab8c71c01461010d575b600080fd5b60035461006f906001600160a01b031681565b6040516001600160a01b0390911681526020015b60405180910390f35b61009f61009a366004610545565b610120565b005b6040805180820182526000808252602091820152815180830183526001546001600160a01b03908116808352600254821692840192835284519081529151169181019190915201610083565b6101006100fb3660046105d9565b6101b0565b604051610083919061064f565b60045461006f906001600160a01b031681565b604080516060810182528281526020810185905290810183905260008054600181018255908052815182916003027f290decd9548b62a8d60345a988386fc84ba6bc95484008f6362f93160ef3e5630190819061017d908261077e565b5060208201516001820190610192908261077e565b50604082015160028201906101a7908261077e565b50505050505050565b6004805460015460405163cde6804160e01b81526001600160a01b038581169482019490945290831660248201526060929091169063cde6804190604401602060405180830381865afa15801561020b573d6000803e3d6000fd5b505050506040513d601f19601f8201168201806040525081019061022f919061083d565b61028b5760405162461bcd60e51b8152602060048201526024808201527f4163636573732064656e6965643a2063616c6c6572206e6f7420617574686f726044820152631a5e995960e21b606482015260840160405180910390fd5b6000805480602002602001604051908101604052809291908181526020016000905b8282101561049557838290600052602060002090600302016040518060600160405290816000820180546102e0906106f5565b80601f016020809104026020016040519081016040528092919081815260200182805461030c906106f5565b80156103595780601f1061032e57610100808354040283529160200191610359565b820191906000526020600020905b81548152906001019060200180831161033c57829003601f168201915b50505050508152602001600182018054610372906106f5565b80601f016020809104026020016040519081016040528092919081815260200182805461039e906106f5565b80156103eb5780601f106103c0576101008083540402835291602001916103eb565b820191906000526020600020905b8154815290600101906020018083116103ce57829003601f168201915b50505050508152602001600282018054610404906106f5565b80601f0160208091040260200160405190810160405280929190818152602001828054610430906106f5565b801561047d5780601f106104525761010080835404028352916020019161047d565b820191906000526020600020905b81548152906001019060200180831161046057829003601f168201915b505050505081525050815260200190600101906102ad565b505050509050919050565b634e487b7160e01b600052604160045260246000fd5b600082601f8301126104c757600080fd5b813567ffffffffffffffff8111156104e1576104e16104a0565b604051601f8201601f19908116603f0116810167ffffffffffffffff81118282101715610510576105106104a0565b60405281815283820160200185101561052857600080fd5b816020850160208301376000918101602001919091529392505050565b60008060006060848603121561055a57600080fd5b833567ffffffffffffffff81111561057157600080fd5b61057d868287016104b6565b935050602084013567ffffffffffffffff81111561059a57600080fd5b6105a6868287016104b6565b925050604084013567ffffffffffffffff8111156105c357600080fd5b6105cf868287016104b6565b9150509250925092565b6000602082840312156105eb57600080fd5b81356001600160a01b038116811461060257600080fd5b9392505050565b6000815180845260005b8181101561062f57602081850181015186830182015201610613565b506000602082860101526020601f19601f83011685010191505092915050565b6000602082016020835280845180835260408501915060408160051b86010192506020860160005b828110156106e957603f19878603018452815180516060875261069d6060880182610609565b9050602082015187820360208901526106b68282610609565b9150506040820151915086810360408801526106d28183610609565b965050506020938401939190910190600101610677565b50929695505050505050565b600181811c9082168061070957607f821691505b60208210810361072957634e487b7160e01b600052602260045260246000fd5b50919050565b601f82111561077957806000526020600020601f840160051c810160208510156107565750805b601f840160051c820191505b818110156107765760008155600101610762565b50505b505050565b815167ffffffffffffffff811115610798576107986104a0565b6107ac816107a684546106f5565b8461072f565b6020601f8211600181146107e057600083156107c85750848201515b600019600385901b1c1916600184901b178455610776565b600084815260208120601f198516915b8281101561081057878501518255602094850194600190920191016107f0565b508482101561082e5786840151600019600387901b60f8161c191681555b50505050600190811b01905550565b60006020828403121561084f57600080fd5b8151801515811461060257600080fdfea264697066735822122074ee546e987245068946c8c1bed16216d477526984cb7ead0c02343a13011f6064736f6c634300081c0033a2646970667358221220397f8540d624287f73e841b6609e6897276c62a0881a2fb7a0888760d58c8cb864736f6c634300081c0033",
  "linkReferences": {},
  "deployedLinkReferences": {}
}