{
  "_format": "hh-sol-artifact-1",
  "contractName": "Product",
  "sourceName": "contracts/Product.sol",
  "abi": [
    {
      "inputs": [
        {
          "internalType": "string",
          "name": "_productName",
          "type": "string"
        },
        {
          "internalType": "string",
          "name": "_productId",
          "type": "string"
        },
        {
          "internalType": "address",
          "name": "_organizationAddress",
          "type": "address"
        },
        {
          "internalType": "address[]",
          "name": "_participatingOrganizations",
          "type": "address[]"
        }
      ],
      "stateMutability": "nonpayable",
      "type": "constructor"
    },
    {
      "anonymous": false,
      "inputs": [
        {
          "indexed": true,
          "internalType": "address",
          "name": "org1",
          "type": "address"
        },
        {
          "indexed": true,
          "internalType": "address",
          "name": "org2",
          "type": "address"
        },
        {
          "indexed": false,
          "internalType": "int256",
          "name": "permission",
          "type": "int256"
        }
      ],
      "name": "PermissionChanged",
      "type": "event"
    },
    {
      "anonymous": false,
      "inputs": [
        {
          "indexed": true,
          "internalType": "address",
          "name": "productAddress",
          "type": "address"
        }
      ],
      "name": "ProductCreated",
      "type": "event"
    },
    {
      "inputs": [
        {
          "internalType": "address",
          "name": "orgAddress",
          "type": "address"
        }
      ],
      "name": "approveOwnershipTransfer",
      "outputs": [],
      "stateMutability": "nonpayable",
      "type": "function"
    },
    {
      "inputs": [
        {
          "internalType": "address",
          "name": "organizationAddr",
          "type": "address"
        }
      ],
      "name": "getAllMyPermissedOrgs",
      "outputs": [
        {
          "internalType": "address[]",
          "name": "",
          "type": "address[]"
        }
      ],
      "stateMutability": "view",
      "type": "function"
    },
    {
      "inputs": [],
      "name": "getName",
      "outputs": [
        {
          "internalType": "string",
          "name": "",
          "type": "string"
        }
      ],
      "stateMutability": "view",
      "type": "function"
    },
    {
      "inputs": [],
      "name": "getOwnershipHistory",
      "outputs": [
        {
          "components": [
            {
              "internalType": "address",
              "name": "manager",
              "type": "address"
            },
            {
              "internalType": "uint256",
              "name": "startTime",
              "type": "uint256"
            }
          ],
          "internalType": "struct Product.Ownership[]",
          "name": "",
          "type": "tuple[]"
        }
      ],
      "stateMutability": "view",
      "type": "function"
    },
    {
      "inputs": [
        {
          "internalType": "address",
          "name": "_organizationAddress",
          "type": "address"
        }
      ],
      "name": "getProductAtOrganization",
      "outputs": [
        {
          "internalType": "address",
          "name": "",
          "type": "address"
        }
      ],
      "stateMutability": "view",
      "type": "function"
    },
    {
      "inputs": [
        {
          "internalType": "address",
          "name": "org1",
          "type": "address"
        },
        {
          "internalType": "address",
          "name": "org2",
          "type": "address"
        }
      ],
      "name": "hasPermission",
      "outputs": [
        {
          "internalType": "bool",
          "name": "",
          "type": "bool"
        }
      ],
      "stateMutability": "view",
      "type": "function"
    },
    {
      "inputs": [],
      "name": "manager",
      "outputs": [
        {
          "internalType": "address",
          "name": "",
          "type": "address"
        }
      ],
      "stateMutability": "view",
      "type": "function"
    },
    {
      "inputs": [
        {
          "internalType": "uint256",
          "name": "",
          "type": "uint256"
        }
      ],
      "name": "orgAddresses",
      "outputs": [
        {
          "internalType": "address",
          "name": "",
          "type": "address"
        }
      ],
      "stateMutability": "view",
      "type": "function"
    },
    {
      "inputs": [
        {
          "internalType": "address",
          "name": "",
          "type": "address"
        }
      ],
      "name": "organizationToProductAtOrganization",
      "outputs": [
        {
          "internalType": "address",
          "name": "",
          "type": "address"
        }
      ],
      "stateMutability": "view",
      "type": "function"
    },
    {
      "inputs": [
        {
          "internalType": "uint256",
          "name": "",
          "type": "uint256"
        }
      ],
      "name": "ownershipHistory",
      "outputs": [
        {
          "internalType": "address",
          "name": "manager",
          "type": "address"
        },
        {
          "internalType": "uint256",
          "name": "startTime",
          "type": "uint256"
        }
      ],
      "stateMutability": "view",
      "type": "function"
    },
    {
      "inputs": [],
      "name": "pendingManager",
      "outputs": [
        {
          "internalType": "address",
          "name": "",
          "type": "address"
        }
      ],
      "stateMutability": "view",
      "type": "function"
    },
    {
      "inputs": [
        {
          "internalType": "address",
          "name": "",
          "type": "address"
        },
        {
          "internalType": "address",
          "name": "",
          "type": "address"
        }
      ],
      "name": "permissionsMatrix",
      "outputs": [
        {
          "internalType": "int256",
          "name": "",
          "type": "int256"
        }
      ],
      "stateMutability": "view",
      "type": "function"
    },
    {
      "inputs": [
        {
          "internalType": "address",
          "name": "newManager",
          "type": "address"
        }
      ],
      "name": "requestOwnershipTransfer",
      "outputs": [],
      "stateMutability": "nonpayable",
      "type": "function"
    },
    {
      "inputs": [
        {
          "internalType": "address",
          "name": "org1",
          "type": "address"
        },
        {
          "internalType": "address",
          "name": "org2",
          "type": "address"
        },
        {
          "internalType": "int256",
          "name": "permission",
          "type": "int256"
        }
      ],
      "name": "setPermission",
      "outputs": [],
      "stateMutability": "nonpayable",
      "type": "function"
    }
  ],
  "bytecode": "0x608060405234801561001057600080fd5b50604051611dde380380611dde83398101604081905261002f9161041b565b805181906100449060009060208401906102ad565b5060005b81518110156100e55760005b82518110156100dc57600180600085858151811061007457610074610536565b60200260200101516001600160a01b03166001600160a01b0316815260200190815260200160002060008584815181106100b0576100b0610536565b6020908102919091018101516001600160a01b0316825281019190915260400160002055600101610054565b50600101610048565b5050604080518082019091528481526020810184905260028061010887826105d5565b506020820151600182019061011d90826105d5565b505060058054336001600160a01b0319918216811790925560408051808201825292835242602084019081526007805460018101825560009190915293517fa66cc928b5edb82af9bd49922954155ab7b0942694bea4ce44661d9a8736c688600290950294850180549094166001600160a01b039091161790925590517fa66cc928b5edb82af9bd49922954155ab7b0942694bea4ce44661d9a8736c68990920191909155516101cd9150610312565b604051809103906000f0801580156101e9573d6000803e3d6000fd5b50600880546001600160a01b0319166001600160a01b0392831690811790915560405163d9181cd360e01b815230600482015291841660248301523360448301529063d9181cd3906064016020604051808303816000875af1158015610253573d6000803e3d6000fd5b505050506040513d601f19601f820116820180604052508101906102779190610693565b6001600160a01b03928316600090815260046020526040902080546001600160a01b0319169190931617909155506106b5915050565b828054828255906000526020600020908101928215610302579160200282015b8281111561030257825182546001600160a01b0319166001600160a01b039091161782556020909201916001909101906102cd565b5061030e92915061031f565b5090565b6109be8061142083390190565b5b8082111561030e5760008155600101610320565b634e487b7160e01b600052604160045260246000fd5b604051601f8201601f191681016001600160401b038111828210171561037257610372610334565b604052919050565b600082601f83011261038b57600080fd5b81516001600160401b038111156103a4576103a4610334565b6103b7601f8201601f191660200161034a565b8181528460208386010111156103cc57600080fd5b60005b828110156103eb576020818601810151838301820152016103cf565b506000918101602001919091529392505050565b80516001600160a01b038116811461041657600080fd5b919050565b6000806000806080858703121561043157600080fd5b84516001600160401b0381111561044757600080fd5b6104538782880161037a565b602087015190955090506001600160401b0381111561047157600080fd5b61047d8782880161037a565b93505061048c604086016103ff565b60608601519092506001600160401b038111156104a857600080fd5b8501601f810187136104b957600080fd5b80516001600160401b038111156104d2576104d2610334565b8060051b6104e26020820161034a565b9182526020818401810192908101908a8411156104fe57600080fd5b6020850194505b8385101561052757610516856103ff565b825260209485019490910190610505565b979a9699509497505050505050565b634e487b7160e01b600052603260045260246000fd5b600181811c9082168061056057607f821691505b60208210810361058057634e487b7160e01b600052602260045260246000fd5b50919050565b601f8211156105d057806000526020600020601f840160051c810160208510156105ad5750805b601f840160051c820191505b818110156105cd57600081556001016105b9565b50505b505050565b81516001600160401b038111156105ee576105ee610334565b610602816105fc845461054c565b84610586565b6020601f821160018114610636576000831561061e5750848201515b600019600385901b1c1916600184901b1784556105cd565b600084815260208120601f198516915b828110156106665787850151825560209485019460019092019101610646565b50848210156106845786840151600019600387901b60f8161c191681555b50505050600190811b01905550565b6000602082840312156106a557600080fd5b6106ae826103ff565b9392505050565b610d5c806106c46000396000f3fe608060405234801561001057600080fd5b50600436106100ea5760003560e01c80636f4cf1831161008c578063cde6804111610066578063cde6804114610200578063e791221e1461024d578063f28ad72514610286578063fc83cd82146102af57600080fd5b80636f4cf183146101b85780639a1a764c146101cd578063a00fff6f146101ed57600080fd5b806321d0326f116100c857806321d0326f146101545780633ab0ae611461017f578063481c6a75146101925780634e1d009f146101a557600080fd5b80630952c504146100ef57806317d7de7c1461010457806319159f2014610122575b600080fd5b6101026100fd366004610abc565b6102c2565b005b61010c6103b9565b6040516101199190610ae0565b60405180910390f35b610135610130366004610b2e565b61044e565b604080516001600160a01b039093168352602083019190915201610119565b610167610162366004610b2e565b610486565b6040516001600160a01b039091168152602001610119565b61016761018d366004610abc565b6104b0565b600554610167906001600160a01b031681565b6101026101b3366004610abc565b610548565b6101c0610721565b6040516101199190610b47565b6101e06101db366004610abc565b610796565b6040516101199190610b9f565b600654610167906001600160a01b031681565b61023d61020e366004610be0565b6001600160a01b0380831660009081526001602081815260408084209486168452939052919020541492915050565b6040519015158152602001610119565b61027861025b366004610be0565b600160209081526000928352604080842090915290825290205481565b604051908152602001610119565b610167610294366004610abc565b6004602052600090815260409020546001600160a01b031681565b6101026102bd366004610c19565b61093f565b6005546001600160a01b031633146103325760405162461bcd60e51b815260206004820152602860248201527f4f6e6c7920746865206d616e616765722063616e20706572666f726d20746869604482015267399030b1ba34b7b760c11b60648201526084015b60405180910390fd5b6001600160a01b0381166103975760405162461bcd60e51b815260206004820152602660248201527f4e6577206d616e616765722063616e6e6f7420626520746865207a65726f206160448201526564647265737360d01b6064820152608401610329565b600680546001600160a01b0319166001600160a01b0392909216919091179055565b6060600260000180546103cb90610c5a565b80601f01602080910402602001604051908101604052809291908181526020018280546103f790610c5a565b80156104445780601f1061041957610100808354040283529160200191610444565b820191906000526020600020905b81548152906001019060200180831161042757829003601f168201915b5050505050905090565b6007818154811061045e57600080fd5b6000918252602090912060029091020180546001909101546001600160a01b03909116915082565b6000818154811061049657600080fd5b6000918252602090912001546001600160a01b0316905081565b6001600160a01b038181166000908152600460205260408120549091166105295760405162461bcd60e51b815260206004820152602760248201527f50726f64756374206e6f7420666f756e6420666f722074686973206f7267616e60448201526634bd30ba34b7b760c91b6064820152608401610329565b506001600160a01b039081166000908152600460205260409020541690565b806001600160a01b031663e4183cb16040518163ffffffff1660e01b8152600401602060405180830381865afa158015610586573d6000803e3d6000fd5b505050506040513d601f19601f820116820180604052508101906105aa9190610c94565b6105ef5760405162461bcd60e51b81526020600482015260166024820152754f6e6c79206f776e65722063616e20617070726f766560501b6044820152606401610329565b6006546001600160a01b031633146106635760405162461bcd60e51b815260206004820152603160248201527f4f6e6c79207468652070656e64696e67206d616e616765722063616e206170706044820152703937bb32903a3432903a3930b739b332b960791b6064820152608401610329565b60068054600580546001600160a01b038084166001600160a01b0319928316811784559382169094556040805180820190915292835242602084019081526007805460018101825560009190915293517fa66cc928b5edb82af9bd49922954155ab7b0942694bea4ce44661d9a8736c6886002909502948501805490931690861617909155517fa66cc928b5edb82af9bd49922954155ab7b0942694bea4ce44661d9a8736c689909201919091555461071e918391166109f9565b50565b60606007805480602002602001604051908101604052809291908181526020016000905b8282101561078d576000848152602090819020604080518082019091526002850290910180546001600160a01b03168252600190810154828401529083529092019101610745565b50505050905090565b60606000805b600054811015610815576001600160a01b0384166000908152600160205260408120815482908190859081106107d4576107d4610cb6565b60009182526020808320909101546001600160a01b03168352820192909252604001902054131561080d578161080981610ccc565b9250505b60010161079c565b5060008167ffffffffffffffff81111561083157610831610cf3565b60405190808252806020026020018201604052801561085a578160200160208202803683370190505b5090506000805b600054811015610935576001600160a01b03861660009081526001602052604081208154829081908590811061089957610899610cb6565b60009182526020808320909101546001600160a01b03168352820192909252604001902054131561092d57600081815481106108d7576108d7610cb6565b9060005260206000200160009054906101000a90046001600160a01b031683838151811061090757610907610cb6565b6001600160a01b03909216602092830291909101909101528161092981610ccc565b9250505b600101610861565b5090949350505050565b80158061094c5750806001145b6109985760405162461bcd60e51b815260206004820152601a60248201527f5065726d697373696f6e206d7573742062652030206f7220312e0000000000006044820152606401610329565b6001600160a01b0383811660008181526001602090815260408083209487168084529482529182902085905590518481527f6a442bd8106d9e09bc459120a0e45bb653c8ea137a72cdcf28d37f97ebe65021910160405180910390a3505050565b60085460405163d9181cd360e01b81523060048201526001600160a01b03848116602483015283811660448301529091169063d9181cd3906064016020604051808303816000875af1158015610a53573d6000803e3d6000fd5b505050506040513d601f19601f82011682018060405250810190610a779190610d09565b6001600160a01b03928316600090815260046020526040902080546001600160a01b031916919093161790915550565b6001600160a01b038116811461071e57600080fd5b600060208284031215610ace57600080fd5b8135610ad981610aa7565b9392505050565b602081526000825180602084015260005b81811015610b0e5760208186018101516040868401015201610af1565b506000604082850101526040601f19601f83011684010191505092915050565b600060208284031215610b4057600080fd5b5035919050565b602080825282518282018190526000918401906040840190835b81811015610b9457835180516001600160a01b031684526020908101518185015290930192604090920191600101610b61565b509095945050505050565b602080825282518282018190526000918401906040840190835b81811015610b945783516001600160a01b0316835260209384019390920191600101610bb9565b60008060408385031215610bf357600080fd5b8235610bfe81610aa7565b91506020830135610c0e81610aa7565b809150509250929050565b600080600060608486031215610c2e57600080fd5b8335610c3981610aa7565b92506020840135610c4981610aa7565b929592945050506040919091013590565b600181811c90821680610c6e57607f821691505b602082108103610c8e57634e487b7160e01b600052602260045260246000fd5b50919050565b600060208284031215610ca657600080fd5b81518015158114610ad957600080fd5b634e487b7160e01b600052603260045260246000fd5b600060018201610cec57634e487b7160e01b600052601160045260246000fd5b5060010190565b634e487b7160e01b600052604160045260246000fd5b600060208284031215610d1b57600080fd5b8151610ad981610aa756fea2646970667358221220d8f5bdc10ee4184dc36c14a71f2066c649b678c2e1505b6e0210ae3cde48e55a64736f6c634300081c00336080604052348015600f57600080fd5b5061099f8061001f6000396000f3fe608060405234801561001057600080fd5b506004361061002b5760003560e01c8063d9181cd314610030575b600080fd5b61004361003e3660046100de565b61005f565b6040516001600160a01b03909116815260200160405180910390f35b6000838383604051610070906100b5565b6001600160a01b03938416815291831660208301529091166040820152606001604051809103906000f0801580156100ac573d6000803e3d6000fd5b50949350505050565b6108488061012283390190565b80356001600160a01b03811681146100d957600080fd5b919050565b6000806000606084860312156100f357600080fd5b6100fc846100c2565b925061010a602085016100c2565b9150610118604085016100c2565b9050925092509256fe6080604052348015600f57600080fd5b50604051610848380380610848833981016040819052602c91609c565b600380546001600160a01b039283166001600160a01b031991821617909155604080518082019091529282168084529390911660209092018290526001805482169093179092556002805490921617905560d8565b80516001600160a01b0381168114609757600080fd5b919050565b60008060006060848603121560b057600080fd5b60b7846081565b925060c3602085016081565b915060cf604085016081565b90509250925092565b610761806100e76000396000f3fe608060405234801561001057600080fd5b50600436106100575760003560e01c8063404aa8f91461005c578063481c6a751461007a5780634f3900b0146100a55780635a9b0b89146100ba578063ab8c71c014610106575b600080fd5b610064610119565b6040516100719190610404565b60405180910390f35b60035461008d906001600160a01b031681565b6040516001600160a01b039091168152602001610071565b6100b86100b336600461054f565b61032e565b005b6040805180820182526000808252602091820152815180830183526001546001600160a01b03908116808352600254821692840192835284519081529151169181019190915201610071565b60045461008d906001600160a01b031681565b60606000805480602002602001604051908101604052809291908181526020016000905b828210156103255783829060005260206000209060030201604051806060016040529081600082018054610170906105e3565b80601f016020809104026020016040519081016040528092919081815260200182805461019c906105e3565b80156101e95780601f106101be576101008083540402835291602001916101e9565b820191906000526020600020905b8154815290600101906020018083116101cc57829003601f168201915b50505050508152602001600182018054610202906105e3565b80601f016020809104026020016040519081016040528092919081815260200182805461022e906105e3565b801561027b5780601f106102505761010080835404028352916020019161027b565b820191906000526020600020905b81548152906001019060200180831161025e57829003601f168201915b50505050508152602001600282018054610294906105e3565b80601f01602080910402602001604051908101604052809291908181526020018280546102c0906105e3565b801561030d5780601f106102e25761010080835404028352916020019161030d565b820191906000526020600020905b8154815290600101906020018083116102f057829003601f168201915b5050505050815250508152602001906001019061013d565b50505050905090565b604080516060810182528281526020810185905290810183905260008054600181018255908052815182916003027f290decd9548b62a8d60345a988386fc84ba6bc95484008f6362f93160ef3e5630190819061038b908261066c565b50602082015160018201906103a0908261066c565b50604082015160028201906103b5908261066c565b50505050505050565b6000815180845260005b818110156103e4576020818501810151868301820152016103c8565b506000602082860101526020601f19601f83011685010191505092915050565b6000602082016020835280845180835260408501915060408160051b86010192506020860160005b8281101561049e57603f19878603018452815180516060875261045260608801826103be565b90506020820151878203602089015261046b82826103be565b91505060408201519150868103604088015261048781836103be565b96505050602093840193919091019060010161042c565b50929695505050505050565b634e487b7160e01b600052604160045260246000fd5b600082601f8301126104d157600080fd5b813567ffffffffffffffff8111156104eb576104eb6104aa565b604051601f8201601f19908116603f0116810167ffffffffffffffff8111828210171561051a5761051a6104aa565b60405281815283820160200185101561053257600080fd5b816020850160208301376000918101602001919091529392505050565b60008060006060848603121561056457600080fd5b833567ffffffffffffffff81111561057b57600080fd5b610587868287016104c0565b935050602084013567ffffffffffffffff8111156105a457600080fd5b6105b0868287016104c0565b925050604084013567ffffffffffffffff8111156105cd57600080fd5b6105d9868287016104c0565b9150509250925092565b600181811c908216806105f757607f821691505b60208210810361061757634e487b7160e01b600052602260045260246000fd5b50919050565b601f82111561066757806000526020600020601f840160051c810160208510156106445750805b601f840160051c820191505b818110156106645760008155600101610650565b50505b505050565b815167ffffffffffffffff811115610686576106866104aa565b61069a8161069484546105e3565b8461061d565b6020601f8211600181146106ce57600083156106b65750848201515b600019600385901b1c1916600184901b178455610664565b600084815260208120601f198516915b828110156106fe57878501518255602094850194600190920191016106de565b508482101561071c5786840151600019600387901b60f8161c191681555b50505050600190811b0190555056fea2646970667358221220bf774413acf086230d0c02db75886378687cbe997f559939d281f2bb446f2deb64736f6c634300081c0033a2646970667358221220ef24ee043a5b535acd0dc487234bd2a92529dc4308e050dc64b8cada2299218964736f6c634300081c0033",
  "linkReferences": {},
  "deployedLinkReferences": {}
}